{
  "abi": [
    {
      "inputs": [
        {
          "internalType": "contract MyDelegate",
          "name": "_delegateImplementation",
          "type": "address"
        },
        {
          "internalType": "contract IJBDelegatesRegistry",
          "name": "_delegatesRegistry",
          "type": "address"
        }
      ],
      "stateMutability": "nonpayable",
      "type": "constructor"
    },
    {
      "anonymous": false,
      "inputs": [
        {
          "indexed": false,
          "internalType": "uint256",
          "name": "projectId",
          "type": "uint256"
        },
        {
          "indexed": false,
          "internalType": "contract MyDelegate",
          "name": "delegate",
          "type": "address"
        },
        {
          "indexed": false,
          "internalType": "contract IJBDirectory",
          "name": "directory",
          "type": "address"
        },
        {
          "indexed": false,
          "internalType": "address",
          "name": "caller",
          "type": "address"
        }
      ],
      "name": "DelegateDeployed",
      "type": "event"
    },
    {
      "inputs": [],
      "name": "delegateImplementation",
      "outputs": [
        {
          "internalType": "contract MyDelegate",
          "name": "",
          "type": "address"
        }
      ],
      "stateMutability": "view",
      "type": "function"
    },
    {
      "inputs": [],
      "name": "delegatesRegistry",
      "outputs": [
        {
          "internalType": "contract IJBDelegatesRegistry",
          "name": "",
          "type": "address"
        }
      ],
      "stateMutability": "view",
      "type": "function"
    },
    {
      "inputs": [
        {
          "internalType": "uint256",
          "name": "_projectId",
          "type": "uint256"
        },
        {
          "internalType": "contract IJBDirectory",
          "name": "_directory",
          "type": "address"
        }
      ],
      "name": "deployDelegateFor",
      "outputs": [
        {
          "internalType": "contract MyDelegate",
          "name": "delegate",
          "type": "address"
        }
      ],
      "stateMutability": "nonpayable",
      "type": "function"
    }
  ],
  "bytecode": {
    "object": "0x60c060405234801561001057600080fd5b5060405161044a38038061044a83398101604081905261002f9161005e565b6001600160a01b039182166080521660a052610098565b6001600160a01b038116811461005b57600080fd5b50565b6000806040838503121561007157600080fd5b825161007c81610046565b602084015190925061008d81610046565b809150509250929050565b60805160a0516103826100c86000396000818160a10152610156015260008181607a015260ca01526103826000f3fe608060405234801561001057600080fd5b50600436106100415760003560e01c80637dab031114610046578063a5fbd44a14610075578063d574ff041461009c575b600080fd5b6100596100543660046102e9565b6100c3565b6040516001600160a01b03909116815260200160405180910390f35b6100597f000000000000000000000000000000000000000000000000000000000000000081565b6100597f000000000000000000000000000000000000000000000000000000000000000081565b60006100ee7f000000000000000000000000000000000000000000000000000000000000000061024b565b60405163da35a26f60e01b8152600481018590526001600160a01b0384811660248301529192509082169063da35a26f90604401600060405180830381600087803b15801561013c57600080fd5b505af1158015610150573d6000803e3d6000fd5b505050507f00000000000000000000000000000000000000000000000000000000000000006001600160a01b0316635bcfd21230600080815461019290610325565b91829055506040516001600160e01b031960e085901b1681526001600160a01b0390921660048301526024820152604401600060405180830381600087803b1580156101dd57600080fd5b505af11580156101f1573d6000803e3d6000fd5b5050604080518681526001600160a01b03858116602083015286168183015233606082015290517fbd318535ef41d837ffbebcb4725bbc083c0b01b23e236f2e4c3bcd8db2644a729350908190036080019150a192915050565b6000763d602d80600a3d3981f3363d3d373d3d3d363d730000008260601b60e81c176000526e5af43d82803e903d91602b57fd5bf38260781b17602052603760096000f090506001600160a01b0381166102e45760405162461bcd60e51b8152602060048201526016602482015275115490cc4c4d8dce8818dc99585d194819985a5b195960521b604482015260640160405180910390fd5b919050565b600080604083850312156102fc57600080fd5b8235915060208301356001600160a01b038116811461031a57600080fd5b809150509250929050565b60006001820161034557634e487b7160e01b600052601160045260246000fd5b506001019056fea2646970667358221220e040f38328bbf91bb9cba0fffb6d943a097224185118bd0278f0ba355e0f437664736f6c63430008140033",
    "linkReferences": {}
  },
  "methodIdentifiers": {
    "delegateImplementation()": "a5fbd44a",
    "delegatesRegistry()": "d574ff04",
    "deployDelegateFor(uint256,address)": "7dab0311"
  },
  "id": 66
}