{
  "abi": [
    {
      "inputs": [],
      "stateMutability": "nonpayable",
      "type": "constructor"
    },
    {
      "inputs": [],
      "name": "INVALID_PAYMENT_EVENT",
      "type": "error"
    },
    {
      "inputs": [
        {
          "internalType": "uint256",
          "name": "_projectId",
          "type": "uint256"
        }
      ],
      "name": "addCandidateProjectId",
      "outputs": [],
      "stateMutability": "nonpayable",
      "type": "function"
    },
    {
      "inputs": [
        {
          "internalType": "uint256",
          "name": "",
          "type": "uint256"
        }
      ],
      "name": "candidateProjectIds",
      "outputs": [
        {
          "internalType": "uint256",
          "name": "",
          "type": "uint256"
        }
      ],
      "stateMutability": "view",
      "type": "function"
    },
    {
      "inputs": [
        {
          "components": [
            {
              "internalType": "address",
              "name": "payer",
              "type": "address"
            },
            {
              "internalType": "uint256",
              "name": "projectId",
              "type": "uint256"
            },
            {
              "internalType": "uint256",
              "name": "currentFundingCycleConfiguration",
              "type": "uint256"
            },
            {
              "components": [
                {
                  "internalType": "address",
                  "name": "token",
                  "type": "address"
                },
                {
                  "internalType": "uint256",
                  "name": "value",
                  "type": "uint256"
                },
                {
                  "internalType": "uint256",
                  "name": "decimals",
                  "type": "uint256"
                },
                {
                  "internalType": "uint256",
                  "name": "currency",
                  "type": "uint256"
                }
              ],
              "internalType": "struct JBTokenAmount",
              "name": "amount",
              "type": "tuple"
            },
            {
              "components": [
                {
                  "internalType": "address",
                  "name": "token",
                  "type": "address"
                },
                {
                  "internalType": "uint256",
                  "name": "value",
                  "type": "uint256"
                },
                {
                  "internalType": "uint256",
                  "name": "decimals",
                  "type": "uint256"
                },
                {
                  "internalType": "uint256",
                  "name": "currency",
                  "type": "uint256"
                }
              ],
              "internalType": "struct JBTokenAmount",
              "name": "forwardedAmount",
              "type": "tuple"
            },
            {
              "internalType": "uint256",
              "name": "projectTokenCount",
              "type": "uint256"
            },
            {
              "internalType": "address",
              "name": "beneficiary",
              "type": "address"
            },
            {
              "internalType": "bool",
              "name": "preferClaimedTokens",
              "type": "bool"
            },
            {
              "internalType": "string",
              "name": "memo",
              "type": "string"
            },
            {
              "internalType": "bytes",
              "name": "metadata",
              "type": "bytes"
            }
          ],
          "internalType": "struct JBDidPayData",
          "name": "_data",
          "type": "tuple"
        }
      ],
      "name": "didPay",
      "outputs": [],
      "stateMutability": "payable",
      "type": "function"
    },
    {
      "inputs": [],
      "name": "directory",
      "outputs": [
        {
          "internalType": "contract IJBDirectory",
          "name": "",
          "type": "address"
        }
      ],
      "stateMutability": "view",
      "type": "function"
    },
    {
      "inputs": [
        {
          "internalType": "uint256",
          "name": "_projectId",
          "type": "uint256"
        },
        {
          "internalType": "contract IJBDirectory",
          "name": "_directory",
          "type": "address"
        }
      ],
      "name": "initialize",
      "outputs": [],
      "stateMutability": "nonpayable",
      "type": "function"
    },
    {
      "inputs": [
        {
          "components": [
            {
              "internalType": "contract IJBPaymentTerminal",
              "name": "terminal",
              "type": "address"
            },
            {
              "internalType": "address",
              "name": "payer",
              "type": "address"
            },
            {
              "components": [
                {
                  "internalType": "address",
                  "name": "token",
                  "type": "address"
                },
                {
                  "internalType": "uint256",
                  "name": "value",
                  "type": "uint256"
                },
                {
                  "internalType": "uint256",
                  "name": "decimals",
                  "type": "uint256"
                },
                {
                  "internalType": "uint256",
                  "name": "currency",
                  "type": "uint256"
                }
              ],
              "internalType": "struct JBTokenAmount",
              "name": "amount",
              "type": "tuple"
            },
            {
              "internalType": "uint256",
              "name": "projectId",
              "type": "uint256"
            },
            {
              "internalType": "uint256",
              "name": "currentFundingCycleConfiguration",
              "type": "uint256"
            },
            {
              "internalType": "address",
              "name": "beneficiary",
              "type": "address"
            },
            {
              "internalType": "uint256",
              "name": "weight",
              "type": "uint256"
            },
            {
              "internalType": "uint256",
              "name": "reservedRate",
              "type": "uint256"
            },
            {
              "internalType": "string",
              "name": "memo",
              "type": "string"
            },
            {
              "internalType": "bytes",
              "name": "metadata",
              "type": "bytes"
            }
          ],
          "internalType": "struct JBPayParamsData",
          "name": "_data",
          "type": "tuple"
        }
      ],
      "name": "payParams",
      "outputs": [
        {
          "internalType": "uint256",
          "name": "weight",
          "type": "uint256"
        },
        {
          "internalType": "string",
          "name": "memo",
          "type": "string"
        },
        {
          "components": [
            {
              "internalType": "contract IJBPayDelegate",
              "name": "delegate",
              "type": "address"
            },
            {
              "internalType": "uint256",
              "name": "amount",
              "type": "uint256"
            }
          ],
          "internalType": "struct JBPayDelegateAllocation[]",
          "name": "delegateAllocations",
          "type": "tuple[]"
        }
      ],
      "stateMutability": "view",
      "type": "function"
    },
    {
      "inputs": [],
      "name": "projectId",
      "outputs": [
        {
          "internalType": "uint256",
          "name": "",
          "type": "uint256"
        }
      ],
      "stateMutability": "view",
      "type": "function"
    },
    {
      "inputs": [
        {
          "components": [
            {
              "internalType": "contract IJBPaymentTerminal",
              "name": "terminal",
              "type": "address"
            },
            {
              "internalType": "address",
              "name": "holder",
              "type": "address"
            },
            {
              "internalType": "uint256",
              "name": "projectId",
              "type": "uint256"
            },
            {
              "internalType": "uint256",
              "name": "currentFundingCycleConfiguration",
              "type": "uint256"
            },
            {
              "internalType": "uint256",
              "name": "tokenCount",
              "type": "uint256"
            },
            {
              "internalType": "uint256",
              "name": "totalSupply",
              "type": "uint256"
            },
            {
              "internalType": "uint256",
              "name": "overflow",
              "type": "uint256"
            },
            {
              "components": [
                {
                  "internalType": "address",
                  "name": "token",
                  "type": "address"
                },
                {
                  "internalType": "uint256",
                  "name": "value",
                  "type": "uint256"
                },
                {
                  "internalType": "uint256",
                  "name": "decimals",
                  "type": "uint256"
                },
                {
                  "internalType": "uint256",
                  "name": "currency",
                  "type": "uint256"
                }
              ],
              "internalType": "struct JBTokenAmount",
              "name": "reclaimAmount",
              "type": "tuple"
            },
            {
              "internalType": "bool",
              "name": "useTotalOverflow",
              "type": "bool"
            },
            {
              "internalType": "uint256",
              "name": "redemptionRate",
              "type": "uint256"
            },
            {
              "internalType": "string",
              "name": "memo",
              "type": "string"
            },
            {
              "internalType": "bytes",
              "name": "metadata",
              "type": "bytes"
            }
          ],
          "internalType": "struct JBRedeemParamsData",
          "name": "_data",
          "type": "tuple"
        }
      ],
      "name": "redeemParams",
      "outputs": [
        {
          "internalType": "uint256",
          "name": "reclaimAmount",
          "type": "uint256"
        },
        {
          "internalType": "string",
          "name": "memo",
          "type": "string"
        },
        {
          "components": [
            {
              "internalType": "contract IJBRedemptionDelegate",
              "name": "delegate",
              "type": "address"
            },
            {
              "internalType": "uint256",
              "name": "amount",
              "type": "uint256"
            }
          ],
          "internalType": "struct JBRedemptionDelegateAllocation[]",
          "name": "delegateAllocations",
          "type": "tuple[]"
        }
      ],
      "stateMutability": "view",
      "type": "function"
    },
    {
      "inputs": [
        {
          "internalType": "bytes4",
          "name": "_interfaceId",
          "type": "bytes4"
        }
      ],
      "name": "supportsInterface",
      "outputs": [
        {
          "internalType": "bool",
          "name": "",
          "type": "bool"
        }
      ],
      "stateMutability": "view",
      "type": "function"
    }
  ],
  "bytecode": {
    "object": "0x608060405234801561001057600080fd5b50610a2f806100206000396000f3fe6080604052600436106100865760003560e01c8063c41c2f2411610059578063c41c2f2414610139578063d46cf17114610171578063da35a26f14610191578063da9ee8b7146101b3578063fbf9b544146101c657600080fd5b806301ffc9a71461008b5780633fafa127146100c0578063a51cfd18146100e4578063bfd726b114610119575b600080fd5b34801561009757600080fd5b506100ab6100a6366004610641565b610215565b60405190151581526020015b60405180910390f35b3480156100cc57600080fd5b506100d660005481565b6040519081526020016100b7565b3480156100f057600080fd5b5061010a6100ff366004610672565b506000906060908190565b6040516100b7939291906106f4565b34801561012557600080fd5b506100d6610134366004610766565b61024c565b34801561014557600080fd5b50600254610159906001600160a01b031681565b6040516001600160a01b0390911681526020016100b7565b34801561017d57600080fd5b5061010a61018c36600461077f565b61026d565b34801561019d57600080fd5b506101b16101ac3660046107d3565b610356565b005b6101b16101c1366004610803565b61038a565b3480156101d257600080fd5b506101b16101e1366004610766565b6001805480820182556000919091527fb10e2d527612073b26eecdfd717e6a320cf44b4afac2b0732d9fcbe2b7fa0cf60155565b60006001600160e01b031982166371700c6960e01b148061024657506001600160e01b0319821663da9ee8b760e01b145b92915050565b6001818154811061025c57600080fd5b600091825260209091200154905081565b61012081013560608061028461016085018561083f565b8080601f016020809104026020016040519081016040528093929190818152602001838380828437600092019190915250929450600192506102c4915050565b60405190808252806020026020018201604052801561030957816020015b60408051808201909152600080825260208201528152602001906001900390816102e25790505b5090506040518060400160405280306001600160a01b031681526020018560400160200135815250816000815181106103445761034461088d565b60200260200101819052509193909250565b6000541561036357600080fd5b600091909155600280546001600160a01b0319166001600160a01b03909216919091179055565b600254600054604051636e49181f60e01b815260048101919091523360248201526001600160a01b0390911690636e49181f90604401602060405180830381865afa1580156103dd573d6000803e3d6000fd5b505050506040513d601f19601f8201168201806040525081019061040191906108b1565b15806104135750600054816020013514155b15610431576040516331c57b1b60e21b815260040160405180910390fd5b600061043b61058d565b600254604051630862026560e41b81526004810183905261eeee60248201529192506000916001600160a01b0390911690638620265090604401602060405180830381865afa158015610492573d6000803e3d6000fd5b505050506040513d601f19601f820116820180604052508101906104b691906108ce565b90506001600160a01b038116631ebc263f3484608087018035906104dd9060608a016108eb565b6104ef6101a08a016101808b016108eb565b60006105036101c08c016101a08d01610908565b6105116101c08d018d61083f565b61051f6101e08f018f61083f565b6040518c63ffffffff1660e01b81526004016105449a9998979695949392919061094e565b60206040518083038185885af1158015610562573d6000803e3d6000fd5b50505050506040513d601f19601f8201168201806040525081019061058791906109be565b50505050565b6001546000906105e35760405162461bcd60e51b815260206004820152601860248201527f4e6f2063616e6469646174652070726f6a656374204944730000000000000000604482015260640160405180910390fd5b600154604080514260208083019190915248828401528251808303840181526060909201909252805191012060009161061b916109d7565b9050600181815481106106305761063061088d565b906000526020600020015491505090565b60006020828403121561065357600080fd5b81356001600160e01b03198116811461066b57600080fd5b9392505050565b60006020828403121561068457600080fd5b813567ffffffffffffffff81111561069b57600080fd5b82016101e0818503121561066b57600080fd5b6000815180845260005b818110156106d4576020818501810151868301820152016106b8565b506000602082860101526020601f19601f83011685010191505092915050565b8381526000602060608184015261070e60608401866106ae565b83810360408581019190915285518083528387019284019060005b8181101561075757845180516001600160a01b03168452860151868401529385019391830191600101610729565b50909998505050505050505050565b60006020828403121561077857600080fd5b5035919050565b60006020828403121561079157600080fd5b813567ffffffffffffffff8111156107a857600080fd5b82016101a0818503121561066b57600080fd5b6001600160a01b03811681146107d057600080fd5b50565b600080604083850312156107e657600080fd5b8235915060208301356107f8816107bb565b809150509250929050565b60006020828403121561081557600080fd5b813567ffffffffffffffff81111561082c57600080fd5b8201610200818503121561066b57600080fd5b6000808335601e1984360301811261085657600080fd5b83018035915067ffffffffffffffff82111561087157600080fd5b60200191503681900382131561088657600080fd5b9250929050565b634e487b7160e01b600052603260045260246000fd5b80151581146107d057600080fd5b6000602082840312156108c357600080fd5b815161066b816108a3565b6000602082840312156108e057600080fd5b815161066b816107bb565b6000602082840312156108fd57600080fd5b813561066b816107bb565b60006020828403121561091a57600080fd5b813561066b816108a3565b81835281816020850137506000828201602090810191909152601f909101601f19169091010190565b8a8152602081018a90526001600160a01b038981166040830152881660608201526080810187905285151560a082015261010060c082018190526000906109988382018789610925565b905082810360e08401526109ad818587610925565b9d9c50505050505050505050505050565b6000602082840312156109d057600080fd5b5051919050565b6000826109f457634e487b7160e01b600052601260045260246000fd5b50069056fea26469706673582212204dabf26aed5e9009c50ae53478dbecfdda0d312778366180b6c5f8cc9d0c816664736f6c63430008140033",
    "linkReferences": {}
  },
  "methodIdentifiers": {
    "addCandidateProjectId(uint256)": "fbf9b544",
    "candidateProjectIds(uint256)": "bfd726b1",
    "didPay((address,uint256,uint256,(address,uint256,uint256,uint256),(address,uint256,uint256,uint256),uint256,address,bool,string,bytes))": "da9ee8b7",
    "directory()": "c41c2f24",
    "initialize(uint256,address)": "da35a26f",
    "payParams((address,address,(address,uint256,uint256,uint256),uint256,uint256,address,uint256,uint256,string,bytes))": "d46cf171",
    "projectId()": "3fafa127",
    "redeemParams((address,address,uint256,uint256,uint256,uint256,uint256,(address,uint256,uint256,uint256),bool,uint256,string,bytes))": "a51cfd18",
    "supportsInterface(bytes4)": "01ffc9a7"
  },
  "id": 67
}