{
  "abi": [
    {
      "inputs": [],
      "stateMutability": "nonpayable",
      "type": "constructor"
    },
    {
      "inputs": [],
      "name": "INVALID_PAYMENT_EVENT",
      "type": "error"
    },
    {
      "inputs": [
        {
          "internalType": "uint256",
          "name": "prod1",
          "type": "uint256"
        },
        {
          "internalType": "uint256",
          "name": "denominator",
          "type": "uint256"
        }
      ],
      "name": "PRBMath__MulDivOverflow",
      "type": "error"
    },
    {
      "inputs": [],
      "name": "MAX_PERCENT_SWAP",
      "outputs": [
        {
          "internalType": "uint256",
          "name": "",
          "type": "uint256"
        }
      ],
      "stateMutability": "view",
      "type": "function"
    },
    {
      "inputs": [
        {
          "components": [
            {
              "internalType": "address",
              "name": "payer",
              "type": "address"
            },
            {
              "internalType": "uint256",
              "name": "projectId",
              "type": "uint256"
            },
            {
              "internalType": "uint256",
              "name": "currentFundingCycleConfiguration",
              "type": "uint256"
            },
            {
              "components": [
                {
                  "internalType": "address",
                  "name": "token",
                  "type": "address"
                },
                {
                  "internalType": "uint256",
                  "name": "value",
                  "type": "uint256"
                },
                {
                  "internalType": "uint256",
                  "name": "decimals",
                  "type": "uint256"
                },
                {
                  "internalType": "uint256",
                  "name": "currency",
                  "type": "uint256"
                }
              ],
              "internalType": "struct JBTokenAmount",
              "name": "amount",
              "type": "tuple"
            },
            {
              "components": [
                {
                  "internalType": "address",
                  "name": "token",
                  "type": "address"
                },
                {
                  "internalType": "uint256",
                  "name": "value",
                  "type": "uint256"
                },
                {
                  "internalType": "uint256",
                  "name": "decimals",
                  "type": "uint256"
                },
                {
                  "internalType": "uint256",
                  "name": "currency",
                  "type": "uint256"
                }
              ],
              "internalType": "struct JBTokenAmount",
              "name": "forwardedAmount",
              "type": "tuple"
            },
            {
              "internalType": "uint256",
              "name": "projectTokenCount",
              "type": "uint256"
            },
            {
              "internalType": "address",
              "name": "beneficiary",
              "type": "address"
            },
            {
              "internalType": "bool",
              "name": "preferClaimedTokens",
              "type": "bool"
            },
            {
              "internalType": "string",
              "name": "memo",
              "type": "string"
            },
            {
              "internalType": "bytes",
              "name": "metadata",
              "type": "bytes"
            }
          ],
          "internalType": "struct JBDidPayData",
          "name": "_data",
          "type": "tuple"
        }
      ],
      "name": "didPay",
      "outputs": [],
      "stateMutability": "payable",
      "type": "function"
    },
    {
      "inputs": [],
      "name": "directory",
      "outputs": [
        {
          "internalType": "contract IJBDirectory",
          "name": "",
          "type": "address"
        }
      ],
      "stateMutability": "view",
      "type": "function"
    },
    {
      "inputs": [
        {
          "internalType": "uint256",
          "name": "_projectId",
          "type": "uint256"
        },
        {
          "internalType": "contract IJBDirectory",
          "name": "_directory",
          "type": "address"
        },
        {
          "internalType": "contract IERC20",
          "name": "_token",
          "type": "address"
        },
        {
          "internalType": "contract IWETH9",
          "name": "_weth",
          "type": "address"
        },
        {
          "internalType": "uint256",
          "name": "_percentSwap",
          "type": "uint256"
        }
      ],
      "name": "initialize",
      "outputs": [],
      "stateMutability": "nonpayable",
      "type": "function"
    },
    {
      "inputs": [
        {
          "components": [
            {
              "internalType": "contract IJBPaymentTerminal",
              "name": "terminal",
              "type": "address"
            },
            {
              "internalType": "address",
              "name": "payer",
              "type": "address"
            },
            {
              "components": [
                {
                  "internalType": "address",
                  "name": "token",
                  "type": "address"
                },
                {
                  "internalType": "uint256",
                  "name": "value",
                  "type": "uint256"
                },
                {
                  "internalType": "uint256",
                  "name": "decimals",
                  "type": "uint256"
                },
                {
                  "internalType": "uint256",
                  "name": "currency",
                  "type": "uint256"
                }
              ],
              "internalType": "struct JBTokenAmount",
              "name": "amount",
              "type": "tuple"
            },
            {
              "internalType": "uint256",
              "name": "projectId",
              "type": "uint256"
            },
            {
              "internalType": "uint256",
              "name": "currentFundingCycleConfiguration",
              "type": "uint256"
            },
            {
              "internalType": "address",
              "name": "beneficiary",
              "type": "address"
            },
            {
              "internalType": "uint256",
              "name": "weight",
              "type": "uint256"
            },
            {
              "internalType": "uint256",
              "name": "reservedRate",
              "type": "uint256"
            },
            {
              "internalType": "string",
              "name": "memo",
              "type": "string"
            },
            {
              "internalType": "bytes",
              "name": "metadata",
              "type": "bytes"
            }
          ],
          "internalType": "struct JBPayParamsData",
          "name": "_data",
          "type": "tuple"
        }
      ],
      "name": "payParams",
      "outputs": [
        {
          "internalType": "uint256",
          "name": "weight",
          "type": "uint256"
        },
        {
          "internalType": "string",
          "name": "memo",
          "type": "string"
        },
        {
          "components": [
            {
              "internalType": "contract IJBPayDelegate",
              "name": "delegate",
              "type": "address"
            },
            {
              "internalType": "uint256",
              "name": "amount",
              "type": "uint256"
            }
          ],
          "internalType": "struct JBPayDelegateAllocation[]",
          "name": "delegateAllocations",
          "type": "tuple[]"
        }
      ],
      "stateMutability": "view",
      "type": "function"
    },
    {
      "inputs": [],
      "name": "percentSwap",
      "outputs": [
        {
          "internalType": "uint256",
          "name": "",
          "type": "uint256"
        }
      ],
      "stateMutability": "view",
      "type": "function"
    },
    {
      "inputs": [],
      "name": "projectId",
      "outputs": [
        {
          "internalType": "uint256",
          "name": "",
          "type": "uint256"
        }
      ],
      "stateMutability": "view",
      "type": "function"
    },
    {
      "inputs": [
        {
          "components": [
            {
              "internalType": "contract IJBPaymentTerminal",
              "name": "terminal",
              "type": "address"
            },
            {
              "internalType": "address",
              "name": "holder",
              "type": "address"
            },
            {
              "internalType": "uint256",
              "name": "projectId",
              "type": "uint256"
            },
            {
              "internalType": "uint256",
              "name": "currentFundingCycleConfiguration",
              "type": "uint256"
            },
            {
              "internalType": "uint256",
              "name": "tokenCount",
              "type": "uint256"
            },
            {
              "internalType": "uint256",
              "name": "totalSupply",
              "type": "uint256"
            },
            {
              "internalType": "uint256",
              "name": "overflow",
              "type": "uint256"
            },
            {
              "components": [
                {
                  "internalType": "address",
                  "name": "token",
                  "type": "address"
                },
                {
                  "internalType": "uint256",
                  "name": "value",
                  "type": "uint256"
                },
                {
                  "internalType": "uint256",
                  "name": "decimals",
                  "type": "uint256"
                },
                {
                  "internalType": "uint256",
                  "name": "currency",
                  "type": "uint256"
                }
              ],
              "internalType": "struct JBTokenAmount",
              "name": "reclaimAmount",
              "type": "tuple"
            },
            {
              "internalType": "bool",
              "name": "useTotalOverflow",
              "type": "bool"
            },
            {
              "internalType": "uint256",
              "name": "redemptionRate",
              "type": "uint256"
            },
            {
              "internalType": "string",
              "name": "memo",
              "type": "string"
            },
            {
              "internalType": "bytes",
              "name": "metadata",
              "type": "bytes"
            }
          ],
          "internalType": "struct JBRedeemParamsData",
          "name": "_data",
          "type": "tuple"
        }
      ],
      "name": "redeemParams",
      "outputs": [
        {
          "internalType": "uint256",
          "name": "reclaimAmount",
          "type": "uint256"
        },
        {
          "internalType": "string",
          "name": "memo",
          "type": "string"
        },
        {
          "components": [
            {
              "internalType": "contract IJBRedemptionDelegate",
              "name": "delegate",
              "type": "address"
            },
            {
              "internalType": "uint256",
              "name": "amount",
              "type": "uint256"
            }
          ],
          "internalType": "struct JBRedemptionDelegateAllocation[]",
          "name": "delegateAllocations",
          "type": "tuple[]"
        }
      ],
      "stateMutability": "view",
      "type": "function"
    },
    {
      "inputs": [
        {
          "internalType": "bytes4",
          "name": "_interfaceId",
          "type": "bytes4"
        }
      ],
      "name": "supportsInterface",
      "outputs": [
        {
          "internalType": "bool",
          "name": "",
          "type": "bool"
        }
      ],
      "stateMutability": "view",
      "type": "function"
    },
    {
      "inputs": [],
      "name": "token",
      "outputs": [
        {
          "internalType": "contract IERC20",
          "name": "",
          "type": "address"
        }
      ],
      "stateMutability": "view",
      "type": "function"
    },
    {
      "inputs": [],
      "name": "weth",
      "outputs": [
        {
          "internalType": "contract IWETH9",
          "name": "",
          "type": "address"
        }
      ],
      "stateMutability": "view",
      "type": "function"
    }
  ],
  "bytecode": {
    "object": "0x608060405234801561001057600080fd5b50610936806100206000396000f3fe60806040526004361061009c5760003560e01c8063c41c2f2411610064578063c41c2f241461017f578063cc229b8f1461019f578063d46cf171146101b5578063da9ee8b7146101d5578063daf12cd4146101ea578063fc0c546a1461020a57600080fd5b806301ffc9a7146100a15780632f1979d2146100d65780633fafa127146100fc5780633fc8cef314610112578063a51cfd181461014a575b600080fd5b3480156100ad57600080fd5b506100c16100bc36600461063e565b61022a565b60405190151581526020015b60405180910390f35b3480156100e257600080fd5b506100ee633b9aca0081565b6040519081526020016100cd565b34801561010857600080fd5b506100ee60005481565b34801561011e57600080fd5b50600454610132906001600160a01b031681565b6040516001600160a01b0390911681526020016100cd565b34801561015657600080fd5b50610170610165366004610668565b506000906060908190565b6040516100cd939291906106ea565b34801561018b57600080fd5b50600154610132906001600160a01b031681565b3480156101ab57600080fd5b506100ee60025481565b3480156101c157600080fd5b506101706101d036600461075c565b610261565b6101e86101e3366004610798565b61035a565b005b3480156101f657600080fd5b506101e86102053660046107ec565b610522565b34801561021657600080fd5b50600354610132906001600160a01b031681565b60006001600160e01b031982166371700c6960e01b148061025b57506001600160e01b0319821663da9ee8b760e01b145b92915050565b610120810135606080610278610160850185610847565b8080601f016020809104026020016040519081016040528093929190818152602001838380828437600092019190915250929450600192506102b8915050565b6040519080825280602002602001820160405280156102fd57816020015b60408051808201909152600080825260208201528152602001906001900390816102d65790505b5090506040518060400160405280306001600160a01b031681526020016103328660400160200135600254633b9aca00610567565b8152508160008151811061034857610348610895565b60200260200101819052509193909250565b600154600054604051636e49181f60e01b815260048101919091523360248201526001600160a01b0390911690636e49181f90604401602060405180830381865afa1580156103ad573d6000803e3d6000fd5b505050506040513d601f19601f820116820180604052508101906103d191906108ab565b15806103e35750600054816020013514155b15610401576040516331c57b1b60e21b815260040160405180910390fd5b600154604080516322de550f60e21b815290516000926001600160a01b031691638b79543c9160048083019260209291908290030181865afa15801561044b573d6000803e3d6000fd5b505050506040513d601f19601f8201168201806040525081019061046f91906108cd565b90506000816001600160a01b0316636352211e6000546040518263ffffffff1660e01b81526004016104a391815260200190565b602060405180830381865afa1580156104c0573d6000803e3d6000fd5b505050506040513d601f19601f820116820180604052508101906104e491906108cd565b6040519091506001600160a01b038216903480156108fc02916000818181858888f1935050505015801561051c573d6000803e3d6000fd5b50505050565b6000541561052f57600080fd5b60009490945550600180546001600160a01b039384166001600160a01b03199182161790915560038054929093169116179055600255565b60008080600019858709858702925082811083820303915050806000036105a157838281610597576105976108ea565b0492505050610637565b8381106105cf57604051631dcf306360e21b8152600481018290526024810185905260440160405180910390fd5b600084868809851960019081018716968790049682860381900495909211909303600082900391909104909201919091029190911760038402600290811880860282030280860282030280860282030280860282030280860282030280860290910302029150505b9392505050565b60006020828403121561065057600080fd5b81356001600160e01b03198116811461063757600080fd5b60006020828403121561067a57600080fd5b813567ffffffffffffffff81111561069157600080fd5b82016101e0818503121561063757600080fd5b6000815180845260005b818110156106ca576020818501810151868301820152016106ae565b506000602082860101526020601f19601f83011685010191505092915050565b8381526000602060608184015261070460608401866106a4565b83810360408581019190915285518083528387019284019060005b8181101561074d57845180516001600160a01b0316845286015186840152938501939183019160010161071f565b50909998505050505050505050565b60006020828403121561076e57600080fd5b813567ffffffffffffffff81111561078557600080fd5b82016101a0818503121561063757600080fd5b6000602082840312156107aa57600080fd5b813567ffffffffffffffff8111156107c157600080fd5b8201610200818503121561063757600080fd5b6001600160a01b03811681146107e957600080fd5b50565b600080600080600060a0868803121561080457600080fd5b853594506020860135610816816107d4565b93506040860135610826816107d4565b92506060860135610836816107d4565b949793965091946080013592915050565b6000808335601e1984360301811261085e57600080fd5b83018035915067ffffffffffffffff82111561087957600080fd5b60200191503681900382131561088e57600080fd5b9250929050565b634e487b7160e01b600052603260045260246000fd5b6000602082840312156108bd57600080fd5b8151801515811461063757600080fd5b6000602082840312156108df57600080fd5b8151610637816107d4565b634e487b7160e01b600052601260045260246000fdfea2646970667358221220e7e871c666a068fed902d96f9a591f1e64120c7006b61f0a3b6d054b02aab5f464736f6c63430008140033",
    "linkReferences": {}
  },
  "methodIdentifiers": {
    "MAX_PERCENT_SWAP()": "2f1979d2",
    "didPay((address,uint256,uint256,(address,uint256,uint256,uint256),(address,uint256,uint256,uint256),uint256,address,bool,string,bytes))": "da9ee8b7",
    "directory()": "c41c2f24",
    "initialize(uint256,address,address,address,uint256)": "daf12cd4",
    "payParams((address,address,(address,uint256,uint256,uint256),uint256,uint256,address,uint256,uint256,string,bytes))": "d46cf171",
    "percentSwap()": "cc229b8f",
    "projectId()": "3fafa127",
    "redeemParams((address,address,uint256,uint256,uint256,uint256,uint256,(address,uint256,uint256,uint256),bool,uint256,string,bytes))": "a51cfd18",
    "supportsInterface(bytes4)": "01ffc9a7",
    "token()": "fc0c546a",
    "weth()": "3fc8cef3"
  },
  "id": 51
}