{
  "abi": [
    {
      "inputs": [],
      "stateMutability": "nonpayable",
      "type": "constructor"
    },
    {
      "inputs": [],
      "name": "INVALID_PAYMENT_EVENT",
      "type": "error"
    },
    {
      "inputs": [
        {
          "internalType": "uint256",
          "name": "prod1",
          "type": "uint256"
        },
        {
          "internalType": "uint256",
          "name": "denominator",
          "type": "uint256"
        }
      ],
      "name": "PRBMath__MulDivOverflow",
      "type": "error"
    },
    {
      "inputs": [],
      "name": "UNAUTHORIZED",
      "type": "error"
    },
    {
      "inputs": [],
      "name": "MAX_PERCENT_SWAP",
      "outputs": [
        {
          "internalType": "uint256",
          "name": "",
          "type": "uint256"
        }
      ],
      "stateMutability": "view",
      "type": "function"
    },
    {
      "inputs": [
        {
          "components": [
            {
              "internalType": "address",
              "name": "payer",
              "type": "address"
            },
            {
              "internalType": "uint256",
              "name": "projectId",
              "type": "uint256"
            },
            {
              "internalType": "uint256",
              "name": "currentFundingCycleConfiguration",
              "type": "uint256"
            },
            {
              "components": [
                {
                  "internalType": "address",
                  "name": "token",
                  "type": "address"
                },
                {
                  "internalType": "uint256",
                  "name": "value",
                  "type": "uint256"
                },
                {
                  "internalType": "uint256",
                  "name": "decimals",
                  "type": "uint256"
                },
                {
                  "internalType": "uint256",
                  "name": "currency",
                  "type": "uint256"
                }
              ],
              "internalType": "struct JBTokenAmount",
              "name": "amount",
              "type": "tuple"
            },
            {
              "components": [
                {
                  "internalType": "address",
                  "name": "token",
                  "type": "address"
                },
                {
                  "internalType": "uint256",
                  "name": "value",
                  "type": "uint256"
                },
                {
                  "internalType": "uint256",
                  "name": "decimals",
                  "type": "uint256"
                },
                {
                  "internalType": "uint256",
                  "name": "currency",
                  "type": "uint256"
                }
              ],
              "internalType": "struct JBTokenAmount",
              "name": "forwardedAmount",
              "type": "tuple"
            },
            {
              "internalType": "uint256",
              "name": "projectTokenCount",
              "type": "uint256"
            },
            {
              "internalType": "address",
              "name": "beneficiary",
              "type": "address"
            },
            {
              "internalType": "bool",
              "name": "preferClaimedTokens",
              "type": "bool"
            },
            {
              "internalType": "string",
              "name": "memo",
              "type": "string"
            },
            {
              "internalType": "bytes",
              "name": "metadata",
              "type": "bytes"
            }
          ],
          "internalType": "struct JBDidPayData",
          "name": "_data",
          "type": "tuple"
        }
      ],
      "name": "didPay",
      "outputs": [],
      "stateMutability": "payable",
      "type": "function"
    },
    {
      "inputs": [],
      "name": "directory",
      "outputs": [
        {
          "internalType": "contract IJBDirectory",
          "name": "",
          "type": "address"
        }
      ],
      "stateMutability": "view",
      "type": "function"
    },
    {
      "inputs": [
        {
          "internalType": "uint256",
          "name": "_projectId",
          "type": "uint256"
        },
        {
          "internalType": "contract IJBDirectory",
          "name": "_directory",
          "type": "address"
        },
        {
          "internalType": "contract IERC20",
          "name": "_token",
          "type": "address"
        },
        {
          "internalType": "contract IWETH9",
          "name": "_weth",
          "type": "address"
        },
        {
          "internalType": "contract IUniswapV3Pool",
          "name": "_pool",
          "type": "address"
        },
        {
          "internalType": "uint256",
          "name": "_percentSwap",
          "type": "uint256"
        }
      ],
      "name": "initialize",
      "outputs": [],
      "stateMutability": "nonpayable",
      "type": "function"
    },
    {
      "inputs": [
        {
          "components": [
            {
              "internalType": "contract IJBPaymentTerminal",
              "name": "terminal",
              "type": "address"
            },
            {
              "internalType": "address",
              "name": "payer",
              "type": "address"
            },
            {
              "components": [
                {
                  "internalType": "address",
                  "name": "token",
                  "type": "address"
                },
                {
                  "internalType": "uint256",
                  "name": "value",
                  "type": "uint256"
                },
                {
                  "internalType": "uint256",
                  "name": "decimals",
                  "type": "uint256"
                },
                {
                  "internalType": "uint256",
                  "name": "currency",
                  "type": "uint256"
                }
              ],
              "internalType": "struct JBTokenAmount",
              "name": "amount",
              "type": "tuple"
            },
            {
              "internalType": "uint256",
              "name": "projectId",
              "type": "uint256"
            },
            {
              "internalType": "uint256",
              "name": "currentFundingCycleConfiguration",
              "type": "uint256"
            },
            {
              "internalType": "address",
              "name": "beneficiary",
              "type": "address"
            },
            {
              "internalType": "uint256",
              "name": "weight",
              "type": "uint256"
            },
            {
              "internalType": "uint256",
              "name": "reservedRate",
              "type": "uint256"
            },
            {
              "internalType": "string",
              "name": "memo",
              "type": "string"
            },
            {
              "internalType": "bytes",
              "name": "metadata",
              "type": "bytes"
            }
          ],
          "internalType": "struct JBPayParamsData",
          "name": "_data",
          "type": "tuple"
        }
      ],
      "name": "payParams",
      "outputs": [
        {
          "internalType": "uint256",
          "name": "weight",
          "type": "uint256"
        },
        {
          "internalType": "string",
          "name": "memo",
          "type": "string"
        },
        {
          "components": [
            {
              "internalType": "contract IJBPayDelegate",
              "name": "delegate",
              "type": "address"
            },
            {
              "internalType": "uint256",
              "name": "amount",
              "type": "uint256"
            }
          ],
          "internalType": "struct JBPayDelegateAllocation[]",
          "name": "delegateAllocations",
          "type": "tuple[]"
        }
      ],
      "stateMutability": "view",
      "type": "function"
    },
    {
      "inputs": [],
      "name": "percentSwap",
      "outputs": [
        {
          "internalType": "uint256",
          "name": "",
          "type": "uint256"
        }
      ],
      "stateMutability": "view",
      "type": "function"
    },
    {
      "inputs": [],
      "name": "pool",
      "outputs": [
        {
          "internalType": "contract IUniswapV3Pool",
          "name": "",
          "type": "address"
        }
      ],
      "stateMutability": "view",
      "type": "function"
    },
    {
      "inputs": [],
      "name": "projectId",
      "outputs": [
        {
          "internalType": "uint256",
          "name": "",
          "type": "uint256"
        }
      ],
      "stateMutability": "view",
      "type": "function"
    },
    {
      "inputs": [
        {
          "components": [
            {
              "internalType": "contract IJBPaymentTerminal",
              "name": "terminal",
              "type": "address"
            },
            {
              "internalType": "address",
              "name": "holder",
              "type": "address"
            },
            {
              "internalType": "uint256",
              "name": "projectId",
              "type": "uint256"
            },
            {
              "internalType": "uint256",
              "name": "currentFundingCycleConfiguration",
              "type": "uint256"
            },
            {
              "internalType": "uint256",
              "name": "tokenCount",
              "type": "uint256"
            },
            {
              "internalType": "uint256",
              "name": "totalSupply",
              "type": "uint256"
            },
            {
              "internalType": "uint256",
              "name": "overflow",
              "type": "uint256"
            },
            {
              "components": [
                {
                  "internalType": "address",
                  "name": "token",
                  "type": "address"
                },
                {
                  "internalType": "uint256",
                  "name": "value",
                  "type": "uint256"
                },
                {
                  "internalType": "uint256",
                  "name": "decimals",
                  "type": "uint256"
                },
                {
                  "internalType": "uint256",
                  "name": "currency",
                  "type": "uint256"
                }
              ],
              "internalType": "struct JBTokenAmount",
              "name": "reclaimAmount",
              "type": "tuple"
            },
            {
              "internalType": "bool",
              "name": "useTotalOverflow",
              "type": "bool"
            },
            {
              "internalType": "uint256",
              "name": "redemptionRate",
              "type": "uint256"
            },
            {
              "internalType": "string",
              "name": "memo",
              "type": "string"
            },
            {
              "internalType": "bytes",
              "name": "metadata",
              "type": "bytes"
            }
          ],
          "internalType": "struct JBRedeemParamsData",
          "name": "_data",
          "type": "tuple"
        }
      ],
      "name": "redeemParams",
      "outputs": [
        {
          "internalType": "uint256",
          "name": "reclaimAmount",
          "type": "uint256"
        },
        {
          "internalType": "string",
          "name": "memo",
          "type": "string"
        },
        {
          "components": [
            {
              "internalType": "contract IJBRedemptionDelegate",
              "name": "delegate",
              "type": "address"
            },
            {
              "internalType": "uint256",
              "name": "amount",
              "type": "uint256"
            }
          ],
          "internalType": "struct JBRedemptionDelegateAllocation[]",
          "name": "delegateAllocations",
          "type": "tuple[]"
        }
      ],
      "stateMutability": "view",
      "type": "function"
    },
    {
      "inputs": [
        {
          "internalType": "bytes4",
          "name": "_interfaceId",
          "type": "bytes4"
        }
      ],
      "name": "supportsInterface",
      "outputs": [
        {
          "internalType": "bool",
          "name": "",
          "type": "bool"
        }
      ],
      "stateMutability": "view",
      "type": "function"
    },
    {
      "inputs": [],
      "name": "token",
      "outputs": [
        {
          "internalType": "contract IERC20",
          "name": "",
          "type": "address"
        }
      ],
      "stateMutability": "view",
      "type": "function"
    },
    {
      "inputs": [
        {
          "internalType": "int256",
          "name": "amount0Delta",
          "type": "int256"
        },
        {
          "internalType": "int256",
          "name": "amount1Delta",
          "type": "int256"
        },
        {
          "internalType": "bytes",
          "name": "data",
          "type": "bytes"
        }
      ],
      "name": "uniswapV3SwapCallback",
      "outputs": [],
      "stateMutability": "nonpayable",
      "type": "function"
    },
    {
      "inputs": [],
      "name": "weth",
      "outputs": [
        {
          "internalType": "contract IWETH9",
          "name": "",
          "type": "address"
        }
      ],
      "stateMutability": "view",
      "type": "function"
    }
  ],
  "bytecode": {
    "object": "0x608060405234801561001057600080fd5b50610d41806100206000396000f3fe6080604052600436106100c25760003560e01c8063a51cfd181161007f578063d46cf17111610059578063d46cf1711461021d578063da9ee8b71461023d578063fa461e3314610250578063fc0c546a1461027057600080fd5b8063a51cfd18146101b2578063c41c2f24146101e7578063cc229b8f1461020757600080fd5b806301ffc9a7146100c757806316f0115b146100fc5780632f1979d2146101345780633fafa1271461015a5780633fc8cef31461017057806342de669914610190575b600080fd5b3480156100d357600080fd5b506100e76100e2366004610942565b610290565b60405190151581526020015b60405180910390f35b34801561010857600080fd5b5060045461011c906001600160a01b031681565b6040516001600160a01b0390911681526020016100f3565b34801561014057600080fd5b5061014c633b9aca0081565b6040519081526020016100f3565b34801561016657600080fd5b5061014c60005481565b34801561017c57600080fd5b5060055461011c906001600160a01b031681565b34801561019c57600080fd5b506101b06101ab366004610984565b6102c7565b005b3480156101be57600080fd5b506101d86101cd3660046109f4565b506000906060908190565b6040516100f393929190610a76565b3480156101f357600080fd5b5060015461011c906001600160a01b031681565b34801561021357600080fd5b5061014c60025481565b34801561022957600080fd5b506101d8610238366004610ae8565b61032d565b6101b061024b366004610b24565b610426565b34801561025c57600080fd5b506101b061026b366004610b60565b610759565b34801561027c57600080fd5b5060035461011c906001600160a01b031681565b60006001600160e01b031982166371700c6960e01b14806102c157506001600160e01b0319821663da9ee8b760e01b145b92915050565b600054156102d457600080fd5b600095909555600180546001600160a01b039586166001600160a01b0319918216179091556003805494861694821694909417909355600580549285169284169290921790915560048054919093169116179055600255565b610120810135606080610344610160850185610be0565b8080601f01602080910402602001604051908101604052809392919081815260200183838082843760009201919091525092945060019250610384915050565b6040519080825280602002602001820160405280156103c957816020015b60408051808201909152600080825260208201528152602001906001900390816103a25790505b5090506040518060400160405280306001600160a01b031681526020016103fe8660400160200135600254633b9aca0061086b565b8152508160008151811061041457610414610c2e565b60200260200101819052509193909250565b600154600054604051636e49181f60e01b815260048101919091523360248201526001600160a01b0390911690636e49181f90604401602060405180830381865afa158015610479573d6000803e3d6000fd5b505050506040513d601f19601f8201168201806040525081019061049d9190610c44565b15806104af5750600054816020013514155b156104cd576040516331c57b1b60e21b815260040160405180910390fd5b600454610100820135906001600160a01b031663128acb08306001846104f86401000276a383610c66565b60405160e086901b6001600160e01b03191681526001600160a01b03948516600482015292151560248401526044830191909152909116606482015260a06084820152600060a482015260c40160408051808303816000875af1158015610563573d6000803e3d6000fd5b505050506040513d601f19601f820116820180604052508101906105879190610c9b565b5050600154604080516322de550f60e21b815290516000926001600160a01b031691638b79543c9160048083019260209291908290030181865afa1580156105d3573d6000803e3d6000fd5b505050506040513d601f19601f820116820180604052508101906105f79190610cbf565b90506000816001600160a01b0316636352211e6000546040518263ffffffff1660e01b815260040161062b91815260200190565b602060405180830381865afa158015610648573d6000803e3d6000fd5b505050506040513d601f19601f8201168201806040525081019061066c9190610cbf565b6003546040516370a0823160e01b81523060048201529192506001600160a01b03169063a9059cbb90839083906370a0823190602401602060405180830381865afa1580156106bf573d6000803e3d6000fd5b505050506040513d601f19601f820116820180604052508101906106e39190610cdc565b6040516001600160e01b031960e085901b1681526001600160a01b03909216600483015260248201526044016020604051808303816000875af115801561072e573d6000803e3d6000fd5b505050506040513d601f19601f820116820180604052508101906107529190610c44565b5050505050565b6004546001600160a01b031633146107845760405163075fd2b160e01b815260040160405180910390fd5b60055460408051630d0e30db60e41b8152905186926001600160a01b03169163d0e30db091849160048082019260009290919082900301818588803b1580156107cc57600080fd5b505af11580156107e0573d6000803e3d6000fd5b50506005546004805460405163a9059cbb60e01b81526001600160a01b039182169281019290925260248201879052909116935063a9059cbb925060440190506020604051808303816000875af115801561083f573d6000803e3d6000fd5b505050506040513d601f19601f820116820180604052508101906108639190610c44565b505050505050565b60008080600019858709858702925082811083820303915050806000036108a55783828161089b5761089b610cf5565b049250505061093b565b8381106108d357604051631dcf306360e21b8152600481018290526024810185905260440160405180910390fd5b600084868809851960019081018716968790049682860381900495909211909303600082900391909104909201919091029190911760038402600290811880860282030280860282030280860282030280860282030280860282030280860290910302029150505b9392505050565b60006020828403121561095457600080fd5b81356001600160e01b03198116811461093b57600080fd5b6001600160a01b038116811461098157600080fd5b50565b60008060008060008060c0878903121561099d57600080fd5b8635955060208701356109af8161096c565b945060408701356109bf8161096c565b935060608701356109cf8161096c565b925060808701356109df8161096c565b8092505060a087013590509295509295509295565b600060208284031215610a0657600080fd5b813567ffffffffffffffff811115610a1d57600080fd5b82016101e0818503121561093b57600080fd5b6000815180845260005b81811015610a5657602081850181015186830182015201610a3a565b506000602082860101526020601f19601f83011685010191505092915050565b83815260006020606081840152610a906060840186610a30565b83810360408581019190915285518083528387019284019060005b81811015610ad957845180516001600160a01b03168452860151868401529385019391830191600101610aab565b50909998505050505050505050565b600060208284031215610afa57600080fd5b813567ffffffffffffffff811115610b1157600080fd5b82016101a0818503121561093b57600080fd5b600060208284031215610b3657600080fd5b813567ffffffffffffffff811115610b4d57600080fd5b8201610200818503121561093b57600080fd5b60008060008060608587031215610b7657600080fd5b8435935060208501359250604085013567ffffffffffffffff80821115610b9c57600080fd5b818701915087601f830112610bb057600080fd5b813581811115610bbf57600080fd5b886020828501011115610bd157600080fd5b95989497505060200194505050565b6000808335601e19843603018112610bf757600080fd5b83018035915067ffffffffffffffff821115610c1257600080fd5b602001915036819003821315610c2757600080fd5b9250929050565b634e487b7160e01b600052603260045260246000fd5b600060208284031215610c5657600080fd5b8151801515811461093b57600080fd5b6001600160a01b03818116838216019080821115610c9457634e487b7160e01b600052601160045260246000fd5b5092915050565b60008060408385031215610cae57600080fd5b505080516020909101519092909150565b600060208284031215610cd157600080fd5b815161093b8161096c565b600060208284031215610cee57600080fd5b5051919050565b634e487b7160e01b600052601260045260246000fdfea26469706673582212203ef690bb8856664c08315173c439e315fb22de4f2f08751cefc2ff21b715ade164736f6c63430008140033",
    "linkReferences": {}
  },
  "methodIdentifiers": {
    "MAX_PERCENT_SWAP()": "2f1979d2",
    "didPay((address,uint256,uint256,(address,uint256,uint256,uint256),(address,uint256,uint256,uint256),uint256,address,bool,string,bytes))": "da9ee8b7",
    "directory()": "c41c2f24",
    "initialize(uint256,address,address,address,address,uint256)": "42de6699",
    "payParams((address,address,(address,uint256,uint256,uint256),uint256,uint256,address,uint256,uint256,string,bytes))": "d46cf171",
    "percentSwap()": "cc229b8f",
    "pool()": "16f0115b",
    "projectId()": "3fafa127",
    "redeemParams((address,address,uint256,uint256,uint256,uint256,uint256,(address,uint256,uint256,uint256),bool,uint256,string,bytes))": "a51cfd18",
    "supportsInterface(bytes4)": "01ffc9a7",
    "token()": "fc0c546a",
    "uniswapV3SwapCallback(int256,int256,bytes)": "fa461e33",
    "weth()": "3fc8cef3"
  },
  "id": 63
}