{
  "abi": [
    {
      "inputs": [],
      "stateMutability": "nonpayable",
      "type": "constructor"
    },
    {
      "inputs": [],
      "name": "INVALID_PAYMENT_EVENT",
      "type": "error"
    },
    {
      "inputs": [
        {
          "internalType": "uint256",
          "name": "_projectId",
          "type": "uint256"
        }
      ],
      "name": "addCandidateProjectId",
      "outputs": [],
      "stateMutability": "nonpayable",
      "type": "function"
    },
    {
      "inputs": [
        {
          "internalType": "uint256",
          "name": "",
          "type": "uint256"
        }
      ],
      "name": "candidateProjectIds",
      "outputs": [
        {
          "internalType": "uint256",
          "name": "",
          "type": "uint256"
        }
      ],
      "stateMutability": "view",
      "type": "function"
    },
    {
      "inputs": [
        {
          "components": [
            {
              "internalType": "address",
              "name": "payer",
              "type": "address"
            },
            {
              "internalType": "uint256",
              "name": "projectId",
              "type": "uint256"
            },
            {
              "internalType": "uint256",
              "name": "currentFundingCycleConfiguration",
              "type": "uint256"
            },
            {
              "components": [
                {
                  "internalType": "address",
                  "name": "token",
                  "type": "address"
                },
                {
                  "internalType": "uint256",
                  "name": "value",
                  "type": "uint256"
                },
                {
                  "internalType": "uint256",
                  "name": "decimals",
                  "type": "uint256"
                },
                {
                  "internalType": "uint256",
                  "name": "currency",
                  "type": "uint256"
                }
              ],
              "internalType": "struct JBTokenAmount",
              "name": "amount",
              "type": "tuple"
            },
            {
              "components": [
                {
                  "internalType": "address",
                  "name": "token",
                  "type": "address"
                },
                {
                  "internalType": "uint256",
                  "name": "value",
                  "type": "uint256"
                },
                {
                  "internalType": "uint256",
                  "name": "decimals",
                  "type": "uint256"
                },
                {
                  "internalType": "uint256",
                  "name": "currency",
                  "type": "uint256"
                }
              ],
              "internalType": "struct JBTokenAmount",
              "name": "forwardedAmount",
              "type": "tuple"
            },
            {
              "internalType": "uint256",
              "name": "projectTokenCount",
              "type": "uint256"
            },
            {
              "internalType": "address",
              "name": "beneficiary",
              "type": "address"
            },
            {
              "internalType": "bool",
              "name": "preferClaimedTokens",
              "type": "bool"
            },
            {
              "internalType": "string",
              "name": "memo",
              "type": "string"
            },
            {
              "internalType": "bytes",
              "name": "metadata",
              "type": "bytes"
            }
          ],
          "internalType": "struct JBDidPayData",
          "name": "_data",
          "type": "tuple"
        }
      ],
      "name": "didPay",
      "outputs": [],
      "stateMutability": "payable",
      "type": "function"
    },
    {
      "inputs": [],
      "name": "directory",
      "outputs": [
        {
          "internalType": "contract IJBDirectory",
          "name": "",
          "type": "address"
        }
      ],
      "stateMutability": "view",
      "type": "function"
    },
    {
      "inputs": [
        {
          "internalType": "uint256",
          "name": "_projectId",
          "type": "uint256"
        },
        {
          "internalType": "contract IJBDirectory",
          "name": "_directory",
          "type": "address"
        }
      ],
      "name": "initialize",
      "outputs": [],
      "stateMutability": "nonpayable",
      "type": "function"
    },
    {
      "inputs": [
        {
          "components": [
            {
              "internalType": "contract IJBPaymentTerminal",
              "name": "terminal",
              "type": "address"
            },
            {
              "internalType": "address",
              "name": "payer",
              "type": "address"
            },
            {
              "components": [
                {
                  "internalType": "address",
                  "name": "token",
                  "type": "address"
                },
                {
                  "internalType": "uint256",
                  "name": "value",
                  "type": "uint256"
                },
                {
                  "internalType": "uint256",
                  "name": "decimals",
                  "type": "uint256"
                },
                {
                  "internalType": "uint256",
                  "name": "currency",
                  "type": "uint256"
                }
              ],
              "internalType": "struct JBTokenAmount",
              "name": "amount",
              "type": "tuple"
            },
            {
              "internalType": "uint256",
              "name": "projectId",
              "type": "uint256"
            },
            {
              "internalType": "uint256",
              "name": "currentFundingCycleConfiguration",
              "type": "uint256"
            },
            {
              "internalType": "address",
              "name": "beneficiary",
              "type": "address"
            },
            {
              "internalType": "uint256",
              "name": "weight",
              "type": "uint256"
            },
            {
              "internalType": "uint256",
              "name": "reservedRate",
              "type": "uint256"
            },
            {
              "internalType": "string",
              "name": "memo",
              "type": "string"
            },
            {
              "internalType": "bytes",
              "name": "metadata",
              "type": "bytes"
            }
          ],
          "internalType": "struct JBPayParamsData",
          "name": "_data",
          "type": "tuple"
        }
      ],
      "name": "payParams",
      "outputs": [
        {
          "internalType": "uint256",
          "name": "weight",
          "type": "uint256"
        },
        {
          "internalType": "string",
          "name": "memo",
          "type": "string"
        },
        {
          "components": [
            {
              "internalType": "contract IJBPayDelegate",
              "name": "delegate",
              "type": "address"
            },
            {
              "internalType": "uint256",
              "name": "amount",
              "type": "uint256"
            }
          ],
          "internalType": "struct JBPayDelegateAllocation[]",
          "name": "delegateAllocations",
          "type": "tuple[]"
        }
      ],
      "stateMutability": "view",
      "type": "function"
    },
    {
      "inputs": [],
      "name": "projectId",
      "outputs": [
        {
          "internalType": "uint256",
          "name": "",
          "type": "uint256"
        }
      ],
      "stateMutability": "view",
      "type": "function"
    },
    {
      "inputs": [
        {
          "components": [
            {
              "internalType": "contract IJBPaymentTerminal",
              "name": "terminal",
              "type": "address"
            },
            {
              "internalType": "address",
              "name": "holder",
              "type": "address"
            },
            {
              "internalType": "uint256",
              "name": "projectId",
              "type": "uint256"
            },
            {
              "internalType": "uint256",
              "name": "currentFundingCycleConfiguration",
              "type": "uint256"
            },
            {
              "internalType": "uint256",
              "name": "tokenCount",
              "type": "uint256"
            },
            {
              "internalType": "uint256",
              "name": "totalSupply",
              "type": "uint256"
            },
            {
              "internalType": "uint256",
              "name": "overflow",
              "type": "uint256"
            },
            {
              "components": [
                {
                  "internalType": "address",
                  "name": "token",
                  "type": "address"
                },
                {
                  "internalType": "uint256",
                  "name": "value",
                  "type": "uint256"
                },
                {
                  "internalType": "uint256",
                  "name": "decimals",
                  "type": "uint256"
                },
                {
                  "internalType": "uint256",
                  "name": "currency",
                  "type": "uint256"
                }
              ],
              "internalType": "struct JBTokenAmount",
              "name": "reclaimAmount",
              "type": "tuple"
            },
            {
              "internalType": "bool",
              "name": "useTotalOverflow",
              "type": "bool"
            },
            {
              "internalType": "uint256",
              "name": "redemptionRate",
              "type": "uint256"
            },
            {
              "internalType": "string",
              "name": "memo",
              "type": "string"
            },
            {
              "internalType": "bytes",
              "name": "metadata",
              "type": "bytes"
            }
          ],
          "internalType": "struct JBRedeemParamsData",
          "name": "_data",
          "type": "tuple"
        }
      ],
      "name": "redeemParams",
      "outputs": [
        {
          "internalType": "uint256",
          "name": "reclaimAmount",
          "type": "uint256"
        },
        {
          "internalType": "string",
          "name": "memo",
          "type": "string"
        },
        {
          "components": [
            {
              "internalType": "contract IJBRedemptionDelegate",
              "name": "delegate",
              "type": "address"
            },
            {
              "internalType": "uint256",
              "name": "amount",
              "type": "uint256"
            }
          ],
          "internalType": "struct JBRedemptionDelegateAllocation[]",
          "name": "delegateAllocations",
          "type": "tuple[]"
        }
      ],
      "stateMutability": "view",
      "type": "function"
    },
    {
      "inputs": [
        {
          "internalType": "bytes4",
          "name": "_interfaceId",
          "type": "bytes4"
        }
      ],
      "name": "supportsInterface",
      "outputs": [
        {
          "internalType": "bool",
          "name": "",
          "type": "bool"
        }
      ],
      "stateMutability": "view",
      "type": "function"
    }
  ],
  "bytecode": {
    "object": "0x608060405234801561001057600080fd5b50610af5806100206000396000f3fe6080604052600436106100865760003560e01c8063c41c2f2411610059578063c41c2f2414610133578063d46cf1711461016b578063da35a26f1461018b578063da9ee8b7146101ad578063fbf9b544146101c057600080fd5b806301ffc9a71461008b5780633fafa127146100c0578063a51cfd18146100e4578063bfd726b114610113575b600080fd5b34801561009757600080fd5b506100ab6100a6366004610707565b61020f565b60405190151581526020015b60405180910390f35b3480156100cc57600080fd5b506100d660005481565b6040519081526020016100b7565b3480156100f057600080fd5b506101046100ff366004610738565b610246565b6040516100b7939291906107ba565b34801561011f57600080fd5b506100d661012e36600461082c565b61032a565b34801561013f57600080fd5b50600254610153906001600160a01b031681565b6040516001600160a01b0390911681526020016100b7565b34801561017757600080fd5b50610104610186366004610845565b61034b565b34801561019757600080fd5b506101ab6101a6366004610899565b61041c565b005b6101ab6101bb3660046108c9565b610450565b3480156101cc57600080fd5b506101ab6101db36600461082c565b6001805480820182556000919091527fb10e2d527612073b26eecdfd717e6a320cf44b4afac2b0732d9fcbe2b7fa0cf60155565b60006001600160e01b031982166371700c6960e01b148061024057506001600160e01b0319821663da9ee8b760e01b145b92915050565b61010081013560608061025d6101a0850185610905565b8080601f0160208091040260200160405190810160405280939291908181526020018383808284376000920191909152509294506001925061029d915050565b6040519080825280602002602001820160405280156102e257816020015b60408051808201909152600080825260208201528152602001906001900390816102bb5790505b509050604051806040016040528060006001600160a01b0316815260200160008152508160008151811061031857610318610953565b60200260200101819052509193909250565b6001818154811061033a57600080fd5b600091825260209091200154905081565b610120810135606080610362610160850185610905565b8080601f016020809104026020016040519081016040528093929190818152602001838380828437600092019190915250929450600192506103a2915050565b6040519080825280602002602001820160405280156103e757816020015b60408051808201909152600080825260208201528152602001906001900390816103c05790505b5090506040518060400160405280306001600160a01b0316815260200160008152508160008151811061031857610318610953565b6000541561042957600080fd5b600091909155600280546001600160a01b0319166001600160a01b03909216919091179055565b600254600054604051636e49181f60e01b815260048101919091523360248201526001600160a01b0390911690636e49181f90604401602060405180830381865afa1580156104a3573d6000803e3d6000fd5b505050506040513d601f19601f820116820180604052508101906104c79190610977565b15806104d95750600054816020013514155b156104f7576040516331c57b1b60e21b815260040160405180910390fd5b6000610501610653565b600254604051630862026560e41b81526004810183905261eeee60248201529192506000916001600160a01b0390911690638620265090604401602060405180830381865afa158015610558573d6000803e3d6000fd5b505050506040513d601f19601f8201168201806040525081019061057c9190610994565b90506001600160a01b038116631ebc263f3484608087018035906105a39060608a016109b1565b6105b56101a08a016101808b016109b1565b60006105c96101c08c016101a08d016109ce565b6105d76101c08d018d610905565b6105e56101e08f018f610905565b6040518c63ffffffff1660e01b815260040161060a9a99989796959493929190610a14565b60206040518083038185885af1158015610628573d6000803e3d6000fd5b50505050506040513d601f19601f8201168201806040525081019061064d9190610a84565b50505050565b6001546000906106a95760405162461bcd60e51b815260206004820152601860248201527f4e6f2063616e6469646174652070726f6a656374204944730000000000000000604482015260640160405180910390fd5b60015460408051426020808301919091524882840152825180830384018152606090920190925280519101206000916106e191610a9d565b9050600181815481106106f6576106f6610953565b906000526020600020015491505090565b60006020828403121561071957600080fd5b81356001600160e01b03198116811461073157600080fd5b9392505050565b60006020828403121561074a57600080fd5b813567ffffffffffffffff81111561076157600080fd5b82016101e0818503121561073157600080fd5b6000815180845260005b8181101561079a5760208185018101518683018201520161077e565b506000602082860101526020601f19601f83011685010191505092915050565b838152600060206060818401526107d46060840186610774565b83810360408581019190915285518083528387019284019060005b8181101561081d57845180516001600160a01b031684528601518684015293850193918301916001016107ef565b50909998505050505050505050565b60006020828403121561083e57600080fd5b5035919050565b60006020828403121561085757600080fd5b813567ffffffffffffffff81111561086e57600080fd5b82016101a0818503121561073157600080fd5b6001600160a01b038116811461089657600080fd5b50565b600080604083850312156108ac57600080fd5b8235915060208301356108be81610881565b809150509250929050565b6000602082840312156108db57600080fd5b813567ffffffffffffffff8111156108f257600080fd5b8201610200818503121561073157600080fd5b6000808335601e1984360301811261091c57600080fd5b83018035915067ffffffffffffffff82111561093757600080fd5b60200191503681900382131561094c57600080fd5b9250929050565b634e487b7160e01b600052603260045260246000fd5b801515811461089657600080fd5b60006020828403121561098957600080fd5b815161073181610969565b6000602082840312156109a657600080fd5b815161073181610881565b6000602082840312156109c357600080fd5b813561073181610881565b6000602082840312156109e057600080fd5b813561073181610969565b81835281816020850137506000828201602090810191909152601f909101601f19169091010190565b8a8152602081018a90526001600160a01b038981166040830152881660608201526080810187905285151560a082015261010060c08201819052600090610a5e83820187896109eb565b905082810360e0840152610a738185876109eb565b9d9c50505050505050505050505050565b600060208284031215610a9657600080fd5b5051919050565b600082610aba57634e487b7160e01b600052601260045260246000fd5b50069056fea26469706673582212201c8a6acff52bda09dc6bba2c58190a6bdf1c5e942b253a591068a4b6ac5a406364736f6c63430008140033",
    "linkReferences": {}
  },
  "methodIdentifiers": {
    "addCandidateProjectId(uint256)": "fbf9b544",
    "candidateProjectIds(uint256)": "bfd726b1",
    "didPay((address,uint256,uint256,(address,uint256,uint256,uint256),(address,uint256,uint256,uint256),uint256,address,bool,string,bytes))": "da9ee8b7",
    "directory()": "c41c2f24",
    "initialize(uint256,address)": "da35a26f",
    "payParams((address,address,(address,uint256,uint256,uint256),uint256,uint256,address,uint256,uint256,string,bytes))": "d46cf171",
    "projectId()": "3fafa127",
    "redeemParams((address,address,uint256,uint256,uint256,uint256,uint256,(address,uint256,uint256,uint256),bool,uint256,string,bytes))": "a51cfd18",
    "supportsInterface(bytes4)": "01ffc9a7"
  },
  "id": 67
}