{
  "abi": [
    {
      "inputs": [],
      "stateMutability": "nonpayable",
      "type": "constructor"
    },
    {
      "inputs": [],
      "name": "INVALID_PAYMENT_EVENT",
      "type": "error"
    },
    {
      "inputs": [
        {
          "internalType": "uint256",
          "name": "prod1",
          "type": "uint256"
        },
        {
          "internalType": "uint256",
          "name": "denominator",
          "type": "uint256"
        }
      ],
      "name": "PRBMath__MulDivOverflow",
      "type": "error"
    },
    {
      "inputs": [],
      "name": "UNAUTHORIZED",
      "type": "error"
    },
    {
      "inputs": [],
      "name": "MAX_PERCENT_SWAP",
      "outputs": [
        {
          "internalType": "uint256",
          "name": "",
          "type": "uint256"
        }
      ],
      "stateMutability": "view",
      "type": "function"
    },
    {
      "inputs": [
        {
          "components": [
            {
              "internalType": "address",
              "name": "payer",
              "type": "address"
            },
            {
              "internalType": "uint256",
              "name": "projectId",
              "type": "uint256"
            },
            {
              "internalType": "uint256",
              "name": "currentFundingCycleConfiguration",
              "type": "uint256"
            },
            {
              "components": [
                {
                  "internalType": "address",
                  "name": "token",
                  "type": "address"
                },
                {
                  "internalType": "uint256",
                  "name": "value",
                  "type": "uint256"
                },
                {
                  "internalType": "uint256",
                  "name": "decimals",
                  "type": "uint256"
                },
                {
                  "internalType": "uint256",
                  "name": "currency",
                  "type": "uint256"
                }
              ],
              "internalType": "struct JBTokenAmount",
              "name": "amount",
              "type": "tuple"
            },
            {
              "components": [
                {
                  "internalType": "address",
                  "name": "token",
                  "type": "address"
                },
                {
                  "internalType": "uint256",
                  "name": "value",
                  "type": "uint256"
                },
                {
                  "internalType": "uint256",
                  "name": "decimals",
                  "type": "uint256"
                },
                {
                  "internalType": "uint256",
                  "name": "currency",
                  "type": "uint256"
                }
              ],
              "internalType": "struct JBTokenAmount",
              "name": "forwardedAmount",
              "type": "tuple"
            },
            {
              "internalType": "uint256",
              "name": "projectTokenCount",
              "type": "uint256"
            },
            {
              "internalType": "address",
              "name": "beneficiary",
              "type": "address"
            },
            {
              "internalType": "bool",
              "name": "preferClaimedTokens",
              "type": "bool"
            },
            {
              "internalType": "string",
              "name": "memo",
              "type": "string"
            },
            {
              "internalType": "bytes",
              "name": "metadata",
              "type": "bytes"
            }
          ],
          "internalType": "struct JBDidPayData",
          "name": "_data",
          "type": "tuple"
        }
      ],
      "name": "didPay",
      "outputs": [],
      "stateMutability": "payable",
      "type": "function"
    },
    {
      "inputs": [],
      "name": "directory",
      "outputs": [
        {
          "internalType": "contract IJBDirectory",
          "name": "",
          "type": "address"
        }
      ],
      "stateMutability": "view",
      "type": "function"
    },
    {
      "inputs": [
        {
          "internalType": "uint256",
          "name": "_projectId",
          "type": "uint256"
        },
        {
          "internalType": "contract IJBDirectory",
          "name": "_directory",
          "type": "address"
        },
        {
          "internalType": "contract IERC20",
          "name": "_token",
          "type": "address"
        },
        {
          "internalType": "contract IWETH9",
          "name": "_weth",
          "type": "address"
        },
        {
          "internalType": "contract IUniswapV3Pool",
          "name": "_pool",
          "type": "address"
        },
        {
          "internalType": "uint256",
          "name": "_percentSwap",
          "type": "uint256"
        }
      ],
      "name": "initialize",
      "outputs": [],
      "stateMutability": "nonpayable",
      "type": "function"
    },
    {
      "inputs": [
        {
          "components": [
            {
              "internalType": "contract IJBPaymentTerminal",
              "name": "terminal",
              "type": "address"
            },
            {
              "internalType": "address",
              "name": "payer",
              "type": "address"
            },
            {
              "components": [
                {
                  "internalType": "address",
                  "name": "token",
                  "type": "address"
                },
                {
                  "internalType": "uint256",
                  "name": "value",
                  "type": "uint256"
                },
                {
                  "internalType": "uint256",
                  "name": "decimals",
                  "type": "uint256"
                },
                {
                  "internalType": "uint256",
                  "name": "currency",
                  "type": "uint256"
                }
              ],
              "internalType": "struct JBTokenAmount",
              "name": "amount",
              "type": "tuple"
            },
            {
              "internalType": "uint256",
              "name": "projectId",
              "type": "uint256"
            },
            {
              "internalType": "uint256",
              "name": "currentFundingCycleConfiguration",
              "type": "uint256"
            },
            {
              "internalType": "address",
              "name": "beneficiary",
              "type": "address"
            },
            {
              "internalType": "uint256",
              "name": "weight",
              "type": "uint256"
            },
            {
              "internalType": "uint256",
              "name": "reservedRate",
              "type": "uint256"
            },
            {
              "internalType": "string",
              "name": "memo",
              "type": "string"
            },
            {
              "internalType": "bytes",
              "name": "metadata",
              "type": "bytes"
            }
          ],
          "internalType": "struct JBPayParamsData",
          "name": "_data",
          "type": "tuple"
        }
      ],
      "name": "payParams",
      "outputs": [
        {
          "internalType": "uint256",
          "name": "weight",
          "type": "uint256"
        },
        {
          "internalType": "string",
          "name": "memo",
          "type": "string"
        },
        {
          "components": [
            {
              "internalType": "contract IJBPayDelegate",
              "name": "delegate",
              "type": "address"
            },
            {
              "internalType": "uint256",
              "name": "amount",
              "type": "uint256"
            }
          ],
          "internalType": "struct JBPayDelegateAllocation[]",
          "name": "delegateAllocations",
          "type": "tuple[]"
        }
      ],
      "stateMutability": "view",
      "type": "function"
    },
    {
      "inputs": [],
      "name": "percentSwap",
      "outputs": [
        {
          "internalType": "uint256",
          "name": "",
          "type": "uint256"
        }
      ],
      "stateMutability": "view",
      "type": "function"
    },
    {
      "inputs": [],
      "name": "pool",
      "outputs": [
        {
          "internalType": "contract IUniswapV3Pool",
          "name": "",
          "type": "address"
        }
      ],
      "stateMutability": "view",
      "type": "function"
    },
    {
      "inputs": [],
      "name": "projectId",
      "outputs": [
        {
          "internalType": "uint256",
          "name": "",
          "type": "uint256"
        }
      ],
      "stateMutability": "view",
      "type": "function"
    },
    {
      "inputs": [
        {
          "components": [
            {
              "internalType": "contract IJBPaymentTerminal",
              "name": "terminal",
              "type": "address"
            },
            {
              "internalType": "address",
              "name": "holder",
              "type": "address"
            },
            {
              "internalType": "uint256",
              "name": "projectId",
              "type": "uint256"
            },
            {
              "internalType": "uint256",
              "name": "currentFundingCycleConfiguration",
              "type": "uint256"
            },
            {
              "internalType": "uint256",
              "name": "tokenCount",
              "type": "uint256"
            },
            {
              "internalType": "uint256",
              "name": "totalSupply",
              "type": "uint256"
            },
            {
              "internalType": "uint256",
              "name": "overflow",
              "type": "uint256"
            },
            {
              "components": [
                {
                  "internalType": "address",
                  "name": "token",
                  "type": "address"
                },
                {
                  "internalType": "uint256",
                  "name": "value",
                  "type": "uint256"
                },
                {
                  "internalType": "uint256",
                  "name": "decimals",
                  "type": "uint256"
                },
                {
                  "internalType": "uint256",
                  "name": "currency",
                  "type": "uint256"
                }
              ],
              "internalType": "struct JBTokenAmount",
              "name": "reclaimAmount",
              "type": "tuple"
            },
            {
              "internalType": "bool",
              "name": "useTotalOverflow",
              "type": "bool"
            },
            {
              "internalType": "uint256",
              "name": "redemptionRate",
              "type": "uint256"
            },
            {
              "internalType": "string",
              "name": "memo",
              "type": "string"
            },
            {
              "internalType": "bytes",
              "name": "metadata",
              "type": "bytes"
            }
          ],
          "internalType": "struct JBRedeemParamsData",
          "name": "_data",
          "type": "tuple"
        }
      ],
      "name": "redeemParams",
      "outputs": [
        {
          "internalType": "uint256",
          "name": "reclaimAmount",
          "type": "uint256"
        },
        {
          "internalType": "string",
          "name": "memo",
          "type": "string"
        },
        {
          "components": [
            {
              "internalType": "contract IJBRedemptionDelegate",
              "name": "delegate",
              "type": "address"
            },
            {
              "internalType": "uint256",
              "name": "amount",
              "type": "uint256"
            }
          ],
          "internalType": "struct JBRedemptionDelegateAllocation[]",
          "name": "delegateAllocations",
          "type": "tuple[]"
        }
      ],
      "stateMutability": "view",
      "type": "function"
    },
    {
      "inputs": [
        {
          "internalType": "bytes4",
          "name": "_interfaceId",
          "type": "bytes4"
        }
      ],
      "name": "supportsInterface",
      "outputs": [
        {
          "internalType": "bool",
          "name": "",
          "type": "bool"
        }
      ],
      "stateMutability": "view",
      "type": "function"
    },
    {
      "inputs": [],
      "name": "token",
      "outputs": [
        {
          "internalType": "contract IERC20",
          "name": "",
          "type": "address"
        }
      ],
      "stateMutability": "view",
      "type": "function"
    },
    {
      "inputs": [
        {
          "internalType": "int256",
          "name": "amount0Delta",
          "type": "int256"
        },
        {
          "internalType": "int256",
          "name": "amount1Delta",
          "type": "int256"
        },
        {
          "internalType": "bytes",
          "name": "data",
          "type": "bytes"
        }
      ],
      "name": "uniswapV3SwapCallback",
      "outputs": [],
      "stateMutability": "nonpayable",
      "type": "function"
    },
    {
      "inputs": [],
      "name": "weth",
      "outputs": [
        {
          "internalType": "contract IWETH9",
          "name": "",
          "type": "address"
        }
      ],
      "stateMutability": "view",
      "type": "function"
    }
  ],
  "bytecode": {
    "object": "0x608060405234801561001057600080fd5b50610d4a806100206000396000f3fe6080604052600436106100c25760003560e01c8063a51cfd181161007f578063d46cf17111610059578063d46cf1711461021d578063da9ee8b71461023d578063fa461e3314610250578063fc0c546a1461027057600080fd5b8063a51cfd18146101b2578063c41c2f24146101e7578063cc229b8f1461020757600080fd5b806301ffc9a7146100c757806316f0115b146100fc5780632f1979d2146101345780633fafa1271461015a5780633fc8cef31461017057806342de669914610190575b600080fd5b3480156100d357600080fd5b506100e76100e2366004610980565b610290565b60405190151581526020015b60405180910390f35b34801561010857600080fd5b5060045461011c906001600160a01b031681565b6040516001600160a01b0390911681526020016100f3565b34801561014057600080fd5b5061014c633b9aca0081565b6040519081526020016100f3565b34801561016657600080fd5b5061014c60005481565b34801561017c57600080fd5b5060055461011c906001600160a01b031681565b34801561019c57600080fd5b506101b06101ab3660046109c2565b6102c7565b005b3480156101be57600080fd5b506101d86101cd366004610a32565b506000906060908190565b6040516100f393929190610ab4565b3480156101f357600080fd5b5060015461011c906001600160a01b031681565b34801561021357600080fd5b5061014c60025481565b34801561022957600080fd5b506101d8610238366004610b26565b61032d565b6101b061024b366004610b62565b610426565b34801561025c57600080fd5b506101b061026b366004610b9e565b610797565b34801561027c57600080fd5b5060035461011c906001600160a01b031681565b60006001600160e01b031982166371700c6960e01b14806102c157506001600160e01b0319821663da9ee8b760e01b145b92915050565b600054156102d457600080fd5b600095909555600180546001600160a01b039586166001600160a01b0319918216179091556003805494861694821694909417909355600580549285169284169290921790915560048054919093169116179055600255565b610120810135606080610344610160850185610c1e565b8080601f01602080910402602001604051908101604052809392919081815260200183838082843760009201919091525092945060019250610384915050565b6040519080825280602002602001820160405280156103c957816020015b60408051808201909152600080825260208201528152602001906001900390816103a25790505b5090506040518060400160405280306001600160a01b031681526020016103fe8660400160200135600254633b9aca006108a9565b8152508160008151811061041457610414610c6c565b60200260200101819052509193909250565b600154600054604051636e49181f60e01b815260048101919091523360248201526001600160a01b0390911690636e49181f90604401602060405180830381865afa158015610479573d6000803e3d6000fd5b505050506040513d601f19601f8201168201806040525081019061049d9190610c82565b15806104af5750600054816020013514155b156104cd576040516331c57b1b60e21b815260040160405180910390fd5b60055460408051630d0e30db60e41b81529051610100840135926001600160a01b03169163d0e30db091849160048082019260009290919082900301818588803b15801561051a57600080fd5b505af115801561052e573d6000803e3d6000fd5b505060048054604051630251596160e31b81523092810192909252600160248301526044820186905260006064830181905260a0608484015260a48301526001600160a01b0316935063128acb08925060c401905060408051808303816000875af11580156105a1573d6000803e3d6000fd5b505050506040513d601f19601f820116820180604052508101906105c59190610ca4565b5050600154604080516322de550f60e21b815290516000926001600160a01b031691638b79543c9160048083019260209291908290030181865afa158015610611573d6000803e3d6000fd5b505050506040513d601f19601f820116820180604052508101906106359190610cc8565b90506000816001600160a01b0316636352211e6000546040518263ffffffff1660e01b815260040161066991815260200190565b602060405180830381865afa158015610686573d6000803e3d6000fd5b505050506040513d601f19601f820116820180604052508101906106aa9190610cc8565b6003546040516370a0823160e01b81523060048201529192506001600160a01b03169063a9059cbb90839083906370a0823190602401602060405180830381865afa1580156106fd573d6000803e3d6000fd5b505050506040513d601f19601f820116820180604052508101906107219190610ce5565b6040516001600160e01b031960e085901b1681526001600160a01b03909216600483015260248201526044016020604051808303816000875af115801561076c573d6000803e3d6000fd5b505050506040513d601f19601f820116820180604052508101906107909190610c82565b5050505050565b6004546001600160a01b031633146107c25760405163075fd2b160e01b815260040160405180910390fd5b60055460408051630d0e30db60e41b8152905185926001600160a01b03169163d0e30db091849160048082019260009290919082900301818588803b15801561080a57600080fd5b505af115801561081e573d6000803e3d6000fd5b50506005546004805460405163a9059cbb60e01b81526001600160a01b039182169281019290925260248201879052909116935063a9059cbb925060440190506020604051808303816000875af115801561087d573d6000803e3d6000fd5b505050506040513d601f19601f820116820180604052508101906108a19190610c82565b505050505050565b60008080600019858709858702925082811083820303915050806000036108e3578382816108d9576108d9610cfe565b0492505050610979565b83811061091157604051631dcf306360e21b8152600481018290526024810185905260440160405180910390fd5b600084868809851960019081018716968790049682860381900495909211909303600082900391909104909201919091029190911760038402600290811880860282030280860282030280860282030280860282030280860282030280860290910302029150505b9392505050565b60006020828403121561099257600080fd5b81356001600160e01b03198116811461097957600080fd5b6001600160a01b03811681146109bf57600080fd5b50565b60008060008060008060c087890312156109db57600080fd5b8635955060208701356109ed816109aa565b945060408701356109fd816109aa565b93506060870135610a0d816109aa565b92506080870135610a1d816109aa565b8092505060a087013590509295509295509295565b600060208284031215610a4457600080fd5b813567ffffffffffffffff811115610a5b57600080fd5b82016101e0818503121561097957600080fd5b6000815180845260005b81811015610a9457602081850181015186830182015201610a78565b506000602082860101526020601f19601f83011685010191505092915050565b83815260006020606081840152610ace6060840186610a6e565b83810360408581019190915285518083528387019284019060005b81811015610b1757845180516001600160a01b03168452860151868401529385019391830191600101610ae9565b50909998505050505050505050565b600060208284031215610b3857600080fd5b813567ffffffffffffffff811115610b4f57600080fd5b82016101a0818503121561097957600080fd5b600060208284031215610b7457600080fd5b813567ffffffffffffffff811115610b8b57600080fd5b8201610200818503121561097957600080fd5b60008060008060608587031215610bb457600080fd5b8435935060208501359250604085013567ffffffffffffffff80821115610bda57600080fd5b818701915087601f830112610bee57600080fd5b813581811115610bfd57600080fd5b886020828501011115610c0f57600080fd5b95989497505060200194505050565b6000808335601e19843603018112610c3557600080fd5b83018035915067ffffffffffffffff821115610c5057600080fd5b602001915036819003821315610c6557600080fd5b9250929050565b634e487b7160e01b600052603260045260246000fd5b600060208284031215610c9457600080fd5b8151801515811461097957600080fd5b60008060408385031215610cb757600080fd5b505080516020909101519092909150565b600060208284031215610cda57600080fd5b8151610979816109aa565b600060208284031215610cf757600080fd5b5051919050565b634e487b7160e01b600052601260045260246000fdfea26469706673582212206de4e3f30d697c6c9edb64eace3084273bf38e7902bcc6182157c303863e6bfa64736f6c63430008140033",
    "linkReferences": {}
  },
  "methodIdentifiers": {
    "MAX_PERCENT_SWAP()": "2f1979d2",
    "didPay((address,uint256,uint256,(address,uint256,uint256,uint256),(address,uint256,uint256,uint256),uint256,address,bool,string,bytes))": "da9ee8b7",
    "directory()": "c41c2f24",
    "initialize(uint256,address,address,address,address,uint256)": "42de6699",
    "payParams((address,address,(address,uint256,uint256,uint256),uint256,uint256,address,uint256,uint256,string,bytes))": "d46cf171",
    "percentSwap()": "cc229b8f",
    "pool()": "16f0115b",
    "projectId()": "3fafa127",
    "redeemParams((address,address,uint256,uint256,uint256,uint256,uint256,(address,uint256,uint256,uint256),bool,uint256,string,bytes))": "a51cfd18",
    "supportsInterface(bytes4)": "01ffc9a7",
    "token()": "fc0c546a",
    "uniswapV3SwapCallback(int256,int256,bytes)": "fa461e33",
    "weth()": "3fc8cef3"
  },
  "id": 60
}