{
  "abi": [
    {
      "inputs": [
        {
          "internalType": "contract YoloDelegateDeployer",
          "name": "_delegateDeployer",
          "type": "address"
        },
        {
          "internalType": "contract IJBOperatorStore",
          "name": "_operatorStore",
          "type": "address"
        }
      ],
      "stateMutability": "nonpayable",
      "type": "constructor"
    },
    {
      "inputs": [],
      "name": "UNAUTHORIZED",
      "type": "error"
    },
    {
      "inputs": [],
      "name": "delegateDeployer",
      "outputs": [
        {
          "internalType": "contract YoloDelegateDeployer",
          "name": "",
          "type": "address"
        }
      ],
      "stateMutability": "view",
      "type": "function"
    },
    {
      "inputs": [
        {
          "internalType": "uint256",
          "name": "_projectId",
          "type": "uint256"
        },
        {
          "components": [
            {
              "components": [
                {
                  "internalType": "uint256",
                  "name": "duration",
                  "type": "uint256"
                },
                {
                  "internalType": "uint256",
                  "name": "weight",
                  "type": "uint256"
                },
                {
                  "internalType": "uint256",
                  "name": "discountRate",
                  "type": "uint256"
                },
                {
                  "internalType": "contract IJBFundingCycleBallot",
                  "name": "ballot",
                  "type": "address"
                }
              ],
              "internalType": "struct JBFundingCycleData",
              "name": "data",
              "type": "tuple"
            },
            {
              "components": [
                {
                  "components": [
                    {
                      "internalType": "bool",
                      "name": "allowSetTerminals",
                      "type": "bool"
                    },
                    {
                      "internalType": "bool",
                      "name": "allowSetController",
                      "type": "bool"
                    },
                    {
                      "internalType": "bool",
                      "name": "pauseTransfers",
                      "type": "bool"
                    }
                  ],
                  "internalType": "struct JBGlobalFundingCycleMetadata",
                  "name": "global",
                  "type": "tuple"
                },
                {
                  "internalType": "uint256",
                  "name": "reservedRate",
                  "type": "uint256"
                },
                {
                  "internalType": "uint256",
                  "name": "redemptionRate",
                  "type": "uint256"
                },
                {
                  "internalType": "uint256",
                  "name": "ballotRedemptionRate",
                  "type": "uint256"
                },
                {
                  "internalType": "bool",
                  "name": "pausePay",
                  "type": "bool"
                },
                {
                  "internalType": "bool",
                  "name": "pauseDistributions",
                  "type": "bool"
                },
                {
                  "internalType": "bool",
                  "name": "pauseRedeem",
                  "type": "bool"
                },
                {
                  "internalType": "bool",
                  "name": "pauseBurn",
                  "type": "bool"
                },
                {
                  "internalType": "bool",
                  "name": "allowMinting",
                  "type": "bool"
                },
                {
                  "internalType": "bool",
                  "name": "allowTerminalMigration",
                  "type": "bool"
                },
                {
                  "internalType": "bool",
                  "name": "allowControllerMigration",
                  "type": "bool"
                },
                {
                  "internalType": "bool",
                  "name": "holdFees",
                  "type": "bool"
                },
                {
                  "internalType": "bool",
                  "name": "preferClaimedTokenOverride",
                  "type": "bool"
                },
                {
                  "internalType": "bool",
                  "name": "useTotalOverflowForRedemptions",
                  "type": "bool"
                },
                {
                  "internalType": "bool",
                  "name": "useDataSourceForPay",
                  "type": "bool"
                },
                {
                  "internalType": "bool",
                  "name": "useDataSourceForRedeem",
                  "type": "bool"
                },
                {
                  "internalType": "address",
                  "name": "dataSource",
                  "type": "address"
                },
                {
                  "internalType": "uint256",
                  "name": "metadata",
                  "type": "uint256"
                }
              ],
              "internalType": "struct JBFundingCycleMetadata",
              "name": "metadata",
              "type": "tuple"
            },
            {
              "internalType": "uint256",
              "name": "mustStartAtOrAfter",
              "type": "uint256"
            },
            {
              "components": [
                {
                  "internalType": "uint256",
                  "name": "group",
                  "type": "uint256"
                },
                {
                  "components": [
                    {
                      "internalType": "bool",
                      "name": "preferClaimed",
                      "type": "bool"
                    },
                    {
                      "internalType": "bool",
                      "name": "preferAddToBalance",
                      "type": "bool"
                    },
                    {
                      "internalType": "uint256",
                      "name": "percent",
                      "type": "uint256"
                    },
                    {
                      "internalType": "uint256",
                      "name": "projectId",
                      "type": "uint256"
                    },
                    {
                      "internalType": "address payable",
                      "name": "beneficiary",
                      "type": "address"
                    },
                    {
                      "internalType": "uint256",
                      "name": "lockedUntil",
                      "type": "uint256"
                    },
                    {
                      "internalType": "contract IJBSplitAllocator",
                      "name": "allocator",
                      "type": "address"
                    }
                  ],
                  "internalType": "struct JBSplit[]",
                  "name": "splits",
                  "type": "tuple[]"
                }
              ],
              "internalType": "struct JBGroupedSplits[]",
              "name": "groupedSplits",
              "type": "tuple[]"
            },
            {
              "components": [
                {
                  "internalType": "contract IJBPaymentTerminal",
                  "name": "terminal",
                  "type": "address"
                },
                {
                  "internalType": "address",
                  "name": "token",
                  "type": "address"
                },
                {
                  "internalType": "uint256",
                  "name": "distributionLimit",
                  "type": "uint256"
                },
                {
                  "internalType": "uint256",
                  "name": "distributionLimitCurrency",
                  "type": "uint256"
                },
                {
                  "internalType": "uint256",
                  "name": "overflowAllowance",
                  "type": "uint256"
                },
                {
                  "internalType": "uint256",
                  "name": "overflowAllowanceCurrency",
                  "type": "uint256"
                }
              ],
              "internalType": "struct JBFundAccessConstraints[]",
              "name": "fundAccessConstraints",
              "type": "tuple[]"
            },
            {
              "internalType": "contract IJBPaymentTerminal[]",
              "name": "terminals",
              "type": "address[]"
            },
            {
              "internalType": "string",
              "name": "memo",
              "type": "string"
            }
          ],
          "internalType": "struct LaunchFundingCyclesData",
          "name": "_launchFundingCyclesData",
          "type": "tuple"
        },
        {
          "internalType": "contract IJBController3_1",
          "name": "_controller",
          "type": "address"
        }
      ],
      "name": "launchFundingCyclesFor",
      "outputs": [
        {
          "internalType": "uint256",
          "name": "configuration",
          "type": "uint256"
        }
      ],
      "stateMutability": "nonpayable",
      "type": "function"
    },
    {
      "inputs": [
        {
          "internalType": "address",
          "name": "_owner",
          "type": "address"
        },
        {
          "components": [
            {
              "components": [
                {
                  "internalType": "string",
                  "name": "content",
                  "type": "string"
                },
                {
                  "internalType": "uint256",
                  "name": "domain",
                  "type": "uint256"
                }
              ],
              "internalType": "struct JBProjectMetadata",
              "name": "projectMetadata",
              "type": "tuple"
            },
            {
              "components": [
                {
                  "internalType": "uint256",
                  "name": "duration",
                  "type": "uint256"
                },
                {
                  "internalType": "uint256",
                  "name": "weight",
                  "type": "uint256"
                },
                {
                  "internalType": "uint256",
                  "name": "discountRate",
                  "type": "uint256"
                },
                {
                  "internalType": "contract IJBFundingCycleBallot",
                  "name": "ballot",
                  "type": "address"
                }
              ],
              "internalType": "struct JBFundingCycleData",
              "name": "data",
              "type": "tuple"
            },
            {
              "components": [
                {
                  "components": [
                    {
                      "internalType": "bool",
                      "name": "allowSetTerminals",
                      "type": "bool"
                    },
                    {
                      "internalType": "bool",
                      "name": "allowSetController",
                      "type": "bool"
                    },
                    {
                      "internalType": "bool",
                      "name": "pauseTransfers",
                      "type": "bool"
                    }
                  ],
                  "internalType": "struct JBGlobalFundingCycleMetadata",
                  "name": "global",
                  "type": "tuple"
                },
                {
                  "internalType": "uint256",
                  "name": "reservedRate",
                  "type": "uint256"
                },
                {
                  "internalType": "uint256",
                  "name": "redemptionRate",
                  "type": "uint256"
                },
                {
                  "internalType": "uint256",
                  "name": "ballotRedemptionRate",
                  "type": "uint256"
                },
                {
                  "internalType": "bool",
                  "name": "pausePay",
                  "type": "bool"
                },
                {
                  "internalType": "bool",
                  "name": "pauseDistributions",
                  "type": "bool"
                },
                {
                  "internalType": "bool",
                  "name": "pauseRedeem",
                  "type": "bool"
                },
                {
                  "internalType": "bool",
                  "name": "pauseBurn",
                  "type": "bool"
                },
                {
                  "internalType": "bool",
                  "name": "allowMinting",
                  "type": "bool"
                },
                {
                  "internalType": "bool",
                  "name": "allowTerminalMigration",
                  "type": "bool"
                },
                {
                  "internalType": "bool",
                  "name": "allowControllerMigration",
                  "type": "bool"
                },
                {
                  "internalType": "bool",
                  "name": "holdFees",
                  "type": "bool"
                },
                {
                  "internalType": "bool",
                  "name": "preferClaimedTokenOverride",
                  "type": "bool"
                },
                {
                  "internalType": "bool",
                  "name": "useTotalOverflowForRedemptions",
                  "type": "bool"
                },
                {
                  "internalType": "bool",
                  "name": "useDataSourceForPay",
                  "type": "bool"
                },
                {
                  "internalType": "bool",
                  "name": "useDataSourceForRedeem",
                  "type": "bool"
                },
                {
                  "internalType": "address",
                  "name": "dataSource",
                  "type": "address"
                },
                {
                  "internalType": "uint256",
                  "name": "metadata",
                  "type": "uint256"
                }
              ],
              "internalType": "struct JBFundingCycleMetadata",
              "name": "metadata",
              "type": "tuple"
            },
            {
              "internalType": "uint256",
              "name": "mustStartAtOrAfter",
              "type": "uint256"
            },
            {
              "components": [
                {
                  "internalType": "uint256",
                  "name": "group",
                  "type": "uint256"
                },
                {
                  "components": [
                    {
                      "internalType": "bool",
                      "name": "preferClaimed",
                      "type": "bool"
                    },
                    {
                      "internalType": "bool",
                      "name": "preferAddToBalance",
                      "type": "bool"
                    },
                    {
                      "internalType": "uint256",
                      "name": "percent",
                      "type": "uint256"
                    },
                    {
                      "internalType": "uint256",
                      "name": "projectId",
                      "type": "uint256"
                    },
                    {
                      "internalType": "address payable",
                      "name": "beneficiary",
                      "type": "address"
                    },
                    {
                      "internalType": "uint256",
                      "name": "lockedUntil",
                      "type": "uint256"
                    },
                    {
                      "internalType": "contract IJBSplitAllocator",
                      "name": "allocator",
                      "type": "address"
                    }
                  ],
                  "internalType": "struct JBSplit[]",
                  "name": "splits",
                  "type": "tuple[]"
                }
              ],
              "internalType": "struct JBGroupedSplits[]",
              "name": "groupedSplits",
              "type": "tuple[]"
            },
            {
              "components": [
                {
                  "internalType": "contract IJBPaymentTerminal",
                  "name": "terminal",
                  "type": "address"
                },
                {
                  "internalType": "address",
                  "name": "token",
                  "type": "address"
                },
                {
                  "internalType": "uint256",
                  "name": "distributionLimit",
                  "type": "uint256"
                },
                {
                  "internalType": "uint256",
                  "name": "distributionLimitCurrency",
                  "type": "uint256"
                },
                {
                  "internalType": "uint256",
                  "name": "overflowAllowance",
                  "type": "uint256"
                },
                {
                  "internalType": "uint256",
                  "name": "overflowAllowanceCurrency",
                  "type": "uint256"
                }
              ],
              "internalType": "struct JBFundAccessConstraints[]",
              "name": "fundAccessConstraints",
              "type": "tuple[]"
            },
            {
              "internalType": "contract IJBPaymentTerminal[]",
              "name": "terminals",
              "type": "address[]"
            },
            {
              "internalType": "string",
              "name": "memo",
              "type": "string"
            }
          ],
          "internalType": "struct LaunchProjectData",
          "name": "_launchProjectData",
          "type": "tuple"
        },
        {
          "internalType": "contract IJBController3_1",
          "name": "_controller",
          "type": "address"
        }
      ],
      "name": "launchProjectFor",
      "outputs": [
        {
          "internalType": "uint256",
          "name": "projectId",
          "type": "uint256"
        }
      ],
      "stateMutability": "nonpayable",
      "type": "function"
    },
    {
      "inputs": [],
      "name": "operatorStore",
      "outputs": [
        {
          "internalType": "contract IJBOperatorStore",
          "name": "",
          "type": "address"
        }
      ],
      "stateMutability": "view",
      "type": "function"
    },
    {
      "inputs": [
        {
          "internalType": "uint256",
          "name": "_projectId",
          "type": "uint256"
        },
        {
          "components": [
            {
              "components": [
                {
                  "internalType": "uint256",
                  "name": "duration",
                  "type": "uint256"
                },
                {
                  "internalType": "uint256",
                  "name": "weight",
                  "type": "uint256"
                },
                {
                  "internalType": "uint256",
                  "name": "discountRate",
                  "type": "uint256"
                },
                {
                  "internalType": "contract IJBFundingCycleBallot",
                  "name": "ballot",
                  "type": "address"
                }
              ],
              "internalType": "struct JBFundingCycleData",
              "name": "data",
              "type": "tuple"
            },
            {
              "components": [
                {
                  "components": [
                    {
                      "internalType": "bool",
                      "name": "allowSetTerminals",
                      "type": "bool"
                    },
                    {
                      "internalType": "bool",
                      "name": "allowSetController",
                      "type": "bool"
                    },
                    {
                      "internalType": "bool",
                      "name": "pauseTransfers",
                      "type": "bool"
                    }
                  ],
                  "internalType": "struct JBGlobalFundingCycleMetadata",
                  "name": "global",
                  "type": "tuple"
                },
                {
                  "internalType": "uint256",
                  "name": "reservedRate",
                  "type": "uint256"
                },
                {
                  "internalType": "uint256",
                  "name": "redemptionRate",
                  "type": "uint256"
                },
                {
                  "internalType": "uint256",
                  "name": "ballotRedemptionRate",
                  "type": "uint256"
                },
                {
                  "internalType": "bool",
                  "name": "pausePay",
                  "type": "bool"
                },
                {
                  "internalType": "bool",
                  "name": "pauseDistributions",
                  "type": "bool"
                },
                {
                  "internalType": "bool",
                  "name": "pauseRedeem",
                  "type": "bool"
                },
                {
                  "internalType": "bool",
                  "name": "pauseBurn",
                  "type": "bool"
                },
                {
                  "internalType": "bool",
                  "name": "allowMinting",
                  "type": "bool"
                },
                {
                  "internalType": "bool",
                  "name": "allowTerminalMigration",
                  "type": "bool"
                },
                {
                  "internalType": "bool",
                  "name": "allowControllerMigration",
                  "type": "bool"
                },
                {
                  "internalType": "bool",
                  "name": "holdFees",
                  "type": "bool"
                },
                {
                  "internalType": "bool",
                  "name": "preferClaimedTokenOverride",
                  "type": "bool"
                },
                {
                  "internalType": "bool",
                  "name": "useTotalOverflowForRedemptions",
                  "type": "bool"
                },
                {
                  "internalType": "bool",
                  "name": "useDataSourceForPay",
                  "type": "bool"
                },
                {
                  "internalType": "bool",
                  "name": "useDataSourceForRedeem",
                  "type": "bool"
                },
                {
                  "internalType": "address",
                  "name": "dataSource",
                  "type": "address"
                },
                {
                  "internalType": "uint256",
                  "name": "metadata",
                  "type": "uint256"
                }
              ],
              "internalType": "struct JBFundingCycleMetadata",
              "name": "metadata",
              "type": "tuple"
            },
            {
              "internalType": "uint256",
              "name": "mustStartAtOrAfter",
              "type": "uint256"
            },
            {
              "components": [
                {
                  "internalType": "uint256",
                  "name": "group",
                  "type": "uint256"
                },
                {
                  "components": [
                    {
                      "internalType": "bool",
                      "name": "preferClaimed",
                      "type": "bool"
                    },
                    {
                      "internalType": "bool",
                      "name": "preferAddToBalance",
                      "type": "bool"
                    },
                    {
                      "internalType": "uint256",
                      "name": "percent",
                      "type": "uint256"
                    },
                    {
                      "internalType": "uint256",
                      "name": "projectId",
                      "type": "uint256"
                    },
                    {
                      "internalType": "address payable",
                      "name": "beneficiary",
                      "type": "address"
                    },
                    {
                      "internalType": "uint256",
                      "name": "lockedUntil",
                      "type": "uint256"
                    },
                    {
                      "internalType": "contract IJBSplitAllocator",
                      "name": "allocator",
                      "type": "address"
                    }
                  ],
                  "internalType": "struct JBSplit[]",
                  "name": "splits",
                  "type": "tuple[]"
                }
              ],
              "internalType": "struct JBGroupedSplits[]",
              "name": "groupedSplits",
              "type": "tuple[]"
            },
            {
              "components": [
                {
                  "internalType": "contract IJBPaymentTerminal",
                  "name": "terminal",
                  "type": "address"
                },
                {
                  "internalType": "address",
                  "name": "token",
                  "type": "address"
                },
                {
                  "internalType": "uint256",
                  "name": "distributionLimit",
                  "type": "uint256"
                },
                {
                  "internalType": "uint256",
                  "name": "distributionLimitCurrency",
                  "type": "uint256"
                },
                {
                  "internalType": "uint256",
                  "name": "overflowAllowance",
                  "type": "uint256"
                },
                {
                  "internalType": "uint256",
                  "name": "overflowAllowanceCurrency",
                  "type": "uint256"
                }
              ],
              "internalType": "struct JBFundAccessConstraints[]",
              "name": "fundAccessConstraints",
              "type": "tuple[]"
            },
            {
              "internalType": "string",
              "name": "memo",
              "type": "string"
            }
          ],
          "internalType": "struct ReconfigureFundingCyclesData",
          "name": "_reconfigureFundingCyclesData",
          "type": "tuple"
        },
        {
          "internalType": "contract IJBController3_1",
          "name": "_controller",
          "type": "address"
        }
      ],
      "name": "reconfigureFundingCyclesOf",
      "outputs": [
        {
          "internalType": "uint256",
          "name": "configuration",
          "type": "uint256"
        }
      ],
      "stateMutability": "nonpayable",
      "type": "function"
    }
  ],
  "bytecode": {
    "object": "0x60c06040523480156200001157600080fd5b5060405162001e8338038062001e83833981016040819052620000349162000065565b6001600160a01b039081166080521660a052620000a4565b6001600160a01b03811681146200006257600080fd5b50565b600080604083850312156200007957600080fd5b825162000086816200004c565b602084015190925062000099816200004c565b809150509250929050565b60805160a051611d98620000eb60003960008181609a015281816101e4015281816103de01526105dc01526000818160ec015281816108c8015261096f0152611d986000f3fe608060405234801561001057600080fd5b50600436106100575760003560e01c80636b69d8f61461005c5780636dd867e7146100825780638f3d964b14610095578063acc0d91f146100d4578063ad007d63146100e7575b600080fd5b61006f61006a36600461144c565b61010e565b6040519081526020015b60405180910390f35b61006f6100903660046115a0565b6102fa565b6100bc7f000000000000000000000000000000000000000000000000000000000000000081565b6040516001600160a01b039091168152602001610079565b61006f6100e2366004611699565b6104f8565b6100bc7f000000000000000000000000000000000000000000000000000000000000000081565b6000816001600160a01b0316638b79543c6040518163ffffffff1660e01b8152600401602060405180830381865afa15801561014e573d6000803e3d6000fd5b505050506040513d601f19601f8201168201806040525081019061017291906117b7565b6001600160a01b03166306661abd6040518163ffffffff1660e01b8152600401602060405180830381865afa1580156101af573d6000803e3d6000fd5b505050506040513d601f19601f820116820180604052508101906101d391906117db565b6101de9060016117f4565b905060007f00000000000000000000000000000000000000000000000000000000000000006001600160a01b0316637dab031183856001600160a01b031663c41c2f246040518163ffffffff1660e01b8152600401602060405180830381865afa158015610250573d6000803e3d6000fd5b505050506040513d601f19601f8201168201806040525081019061027491906117b7565b6040516001600160e01b031960e085901b16815260048101929092526001600160a01b031660248201526044016020604051808303816000875af11580156102c0573d6000803e3d6000fd5b505050506040513d601f19601f820116820180604052508101906102e491906117b7565b90506102f2858583866106ea565b509392505050565b6000816001600160a01b0316638b79543c6040518163ffffffff1660e01b8152600401602060405180830381865afa15801561033a573d6000803e3d6000fd5b505050506040513d601f19601f8201168201806040525081019061035e91906117b7565b6001600160a01b0316636352211e856040518263ffffffff1660e01b815260040161038b91815260200190565b602060405180830381865afa1580156103a8573d6000803e3d6000fd5b505050506040513d601f19601f820116820180604052508101906103cc91906117b7565b8460016103da838383610881565b60007f00000000000000000000000000000000000000000000000000000000000000006001600160a01b0316637dab031189886001600160a01b031663c41c2f246040518163ffffffff1660e01b8152600401602060405180830381865afa15801561044a573d6000803e3d6000fd5b505050506040513d601f19601f8201168201806040525081019061046e91906117b7565b6040516001600160e01b031960e085901b16815260048101929092526001600160a01b031660248201526044016020604051808303816000875af11580156104ba573d6000803e3d6000fd5b505050506040513d601f19601f820116820180604052508101906104de91906117b7565b90506104ec888883896109ff565b98975050505050505050565b6000816001600160a01b0316638b79543c6040518163ffffffff1660e01b8152600401602060405180830381865afa158015610538573d6000803e3d6000fd5b505050506040513d601f19601f8201168201806040525081019061055c91906117b7565b6001600160a01b0316636352211e856040518263ffffffff1660e01b815260040161058991815260200190565b602060405180830381865afa1580156105a6573d6000803e3d6000fd5b505050506040513d601f19601f820116820180604052508101906105ca91906117b7565b8460016105d8838383610881565b60007f00000000000000000000000000000000000000000000000000000000000000006001600160a01b0316637dab031189886001600160a01b031663c41c2f246040518163ffffffff1660e01b8152600401602060405180830381865afa158015610648573d6000803e3d6000fd5b505050506040513d601f19601f8201168201806040525081019061066c91906117b7565b6040516001600160e01b031960e085901b16815260048101929092526001600160a01b031660248201526044016020604051808303816000875af11580156106b8573d6000803e3d6000fd5b505050506040513d601f19601f820116820180604052508101906106dc91906117b7565b90506104ec88888389610bc0565b8251602080850151604080516102408101825281880180515182528051850151948201949094528351820151818301528351606090810151818301528451608090810151151581840152855160a090810151151581850152865160c090810151151581860152875160e09081015115158187015288516101009081015115159087015288516101209081015115159087015288516101409081015115159087015288516101609081015115159087015288516101809081015115159087015288516101a09081015115159087015288516101c09081015115159087015288516101e0908101511515908701526001600160a01b038c811661020088015298516102209081015190870152938c0151928c0151918c0151908c0151938c0151955163b3c5267360e01b8152978a169863b3c5267398610837988f989297909690959493929091600401611b86565b6020604051808303816000875af1158015610856573d6000803e3d6000fd5b505050506040513d601f19601f8201168201806040525081019061087a91906117db565b5050505050565b336001600160a01b03841614801590610935575060405163c161c93f60e01b81523360048201526001600160a01b03848116602483015260448201849052606482018390527f0000000000000000000000000000000000000000000000000000000000000000169063c161c93f90608401602060405180830381865afa15801561090f573d6000803e3d6000fd5b505050506040513d601f19601f820116820180604052508101906109339190611c47565b155b80156109dc575060405163c161c93f60e01b81523360048201526001600160a01b03848116602483015260006044830152606482018390527f0000000000000000000000000000000000000000000000000000000000000000169063c161c93f90608401602060405180830381865afa1580156109b6573d6000803e3d6000fd5b505050506040513d601f19601f820116820180604052508101906109da9190611c47565b155b156109fa5760405163075fd2b160e01b815260040160405180910390fd5b505050565b6000816001600160a01b031663badbdf28868660000151604051806102400160405280896020015160000151815260200189602001516020015181526020018960200151604001518152602001896020015160600151815260200189602001516080015115158152602001896020015160a0015115158152602001896020015160c0015115158152602001896020015160e00151151581526020018960200151610100015115158152602001896020015161012001511515815260200189602001516101400151151581526020018960200151610160015115158152602001896020015161018001511515815260200189602001516101a001511515815260200189602001516101c001511515815260200189602001516101e0015115158152602001886001600160a01b0316815260200189602001516102200151815250886040015189606001518a608001518b60a001516040518863ffffffff1660e01b8152600401610b749796959493929190611c64565b6020604051808303816000875af1158015610b93573d6000803e3d6000fd5b505050506040513d601f19601f82011682018060405250810190610bb791906117db565b95945050505050565b6000816001600160a01b031663111d861b868660000151604051806102400160405280896020015160000151815260200189602001516020015181526020018960200151604001518152602001896020015160600151815260200189602001516080015115158152602001896020015160a0015115158152602001896020015160c0015115158152602001896020015160e00151151581526020018960200151610100015115158152602001896020015161012001511515815260200189602001516101400151151581526020018960200151610160015115158152602001896020015161018001511515815260200189602001516101a001511515815260200189602001516101c001511515815260200189602001516101e0015115158152602001886001600160a01b0316815260200189602001516102200151815250886040015189606001518a608001518b60a001518c60c001516040518963ffffffff1660e01b8152600401610b74989796959493929190611cd8565b6001600160a01b0381168114610d5057600080fd5b50565b8035610d5e81610d3b565b919050565b634e487b7160e01b600052604160045260246000fd5b604080519081016001600160401b0381118282101715610d9b57610d9b610d63565b60405290565b60405161024081016001600160401b0381118282101715610d9b57610d9b610d63565b60405160e081016001600160401b0381118282101715610d9b57610d9b610d63565b60405160c081016001600160401b0381118282101715610d9b57610d9b610d63565b60405161010081016001600160401b0381118282101715610d9b57610d9b610d63565b604051601f8201601f191681016001600160401b0381118282101715610e5357610e53610d63565b604052919050565b600082601f830112610e6c57600080fd5b81356001600160401b03811115610e8557610e85610d63565b610e98601f8201601f1916602001610e2b565b818152846020838601011115610ead57600080fd5b816020850160208301376000918101602001919091529392505050565b600060408284031215610edc57600080fd5b610ee4610d79565b905081356001600160401b03811115610efc57600080fd5b610f0884828501610e5b565b8252506020820135602082015292915050565b600060808284031215610f2d57600080fd5b604051608081018181106001600160401b0382111715610f4f57610f4f610d63565b80604052508091508235815260208301356020820152604083013560408201526060830135610f7d81610d3b565b6060919091015292915050565b8015158114610d5057600080fd5b8035610d5e81610f8a565b600060608284031215610fb557600080fd5b604051606081018181106001600160401b0382111715610fd757610fd7610d63565b6040529050808235610fe881610f8a565b81526020830135610ff881610f8a565b6020820152604083013561100b81610f8a565b6040919091015292915050565b6000610280828403121561102b57600080fd5b611033610da1565b905061103f8383610fa3565b8152606082013560208201526080820135604082015260a0820135606082015261106b60c08301610f98565b608082015261107c60e08301610f98565b60a082015261010061108f818401610f98565b60c08301526101206110a2818501610f98565b60e08401526101406110b5818601610f98565b8385015261016092506110c9838601610f98565b8285015261018091506110dd828601610f98565b908401526101a06110ef858201610f98565b838501526101c09250611103838601610f98565b828501526101e09150611117828601610f98565b90840152610200611129858201610f98565b83850152610220925061113d838601610f98565b8285015261114e6102408601610d53565b818501525050610260830135818301525092915050565b60006001600160401b0382111561117e5761117e610d63565b5060051b60200190565b600082601f83011261119957600080fd5b813560206111ae6111a983611165565b610e2b565b82815260059290921b840181019181810190868411156111cd57600080fd5b8286015b848110156113195780356001600160401b03808211156111f057600080fd5b908801906040828b03601f190181131561120957600080fd5b611211610d79565b878401358152818401358381111561122857600080fd5b8085019450508b603f85011261123d57600080fd5b87840135925061124f6111a984611165565b83815260e09093028401820192888101908d85111561126d57600080fd5b948301945b848610156113045760e0868f03121561128a57600080fd5b611292610dc4565b863561129d81610f8a565b8152868b01356112ac81610f8a565b818c015286850135858201526060808801359082015260808701356112d081610d3b565b608082015260a0878101359082015260c08701356112ed81610d3b565b60c0820152825260e0959095019490890190611272565b828a01525086525050509183019183016111d1565b509695505050505050565b600082601f83011261133557600080fd5b813560206113456111a983611165565b82815260c0928302850182019282820191908785111561136457600080fd5b8387015b858110156113db5781818a0312156113805760008081fd5b611388610de6565b813561139381610d3b565b8152818601356113a281610d3b565b8187015260408281013590820152606080830135908201526080808301359082015260a080830135908201528452928401928101611368565b5090979650505050505050565b600082601f8301126113f957600080fd5b813560206114096111a983611165565b82815260059290921b8401810191818101908684111561142857600080fd5b8286015b8481101561131957803561143f81610d3b565b835291830191830161142c565b60008060006060848603121561146157600080fd5b833561146c81610d3b565b925060208401356001600160401b038082111561148857600080fd5b908501906103c0828803121561149d57600080fd5b6114a5610e08565b8235828111156114b457600080fd5b6114c089828601610eca565b8252506114d08860208501610f1b565b60208201526114e28860a08501611018565b604082015261032083013560608201526103408301358281111561150557600080fd5b61151189828601611188565b6080830152506103608301358281111561152a57600080fd5b61153689828601611324565b60a0830152506103808301358281111561154f57600080fd5b61155b898286016113e8565b60c0830152506103a08301358281111561157457600080fd5b61158089828601610e5b565b60e083015250935061159791505060408501610d53565b90509250925092565b6000806000606084860312156115b557600080fd5b8335925060208401356001600160401b03808211156115d357600080fd5b9085019061038082880312156115e857600080fd5b6115f0610de6565b6115fa8884610f1b565b81526116098860808501611018565b602082015261030083013560408201526103208301358281111561162c57600080fd5b61163889828601611188565b6060830152506103408301358281111561165157600080fd5b61165d89828601611324565b6080830152506103608301358281111561167657600080fd5b61168289828601610e5b565b60a083015250935061159791505060408501610d53565b6000806000606084860312156116ae57600080fd5b8335925060208401356001600160401b03808211156116cc57600080fd5b908501906103a082880312156116e157600080fd5b6116e9610dc4565b6116f38884610f1b565b81526117028860808501611018565b602082015261030083013560408201526103208301358281111561172557600080fd5b61173189828601611188565b6060830152506103408301358281111561174a57600080fd5b61175689828601611324565b6080830152506103608301358281111561176f57600080fd5b61177b898286016113e8565b60a0830152506103808301358281111561179457600080fd5b6117a089828601610e5b565b60c083015250935061159791505060408501610d53565b6000602082840312156117c957600080fd5b81516117d481610d3b565b9392505050565b6000602082840312156117ed57600080fd5b5051919050565b8082018082111561181557634e487b7160e01b600052601160045260246000fd5b92915050565b6000815180845260005b8181101561184157602081850181015186830182015201611825565b506000602082860101526020601f19601f83011685010191505092915050565b8051825260208082015190830152604080820151908301526060908101516001600160a01b0316910152565b6118b28282518051151582526020808201511515908301526040908101511515910152565b6020810151606083015260408101516080830152606081015160a083015260808101516118e360c084018215159052565b5060a081015180151560e08401525060c08101516101006119078185018315159052565b60e0830151915061012061191e8186018415159052565b908301519150610140906119358583018415159052565b830151915061016061194a8582018415159052565b908301519150610180906119618583018415159052565b83015191506101a06119768582018415159052565b9083015191506101c09061198d8583018415159052565b83015191506101e06119a28582018415159052565b908301519150610200906119b98583018415159052565b83015191506102206119ce8582018415159052565b908301516001600160a01b0316610240850152909101516102609092019190915250565b600081518084526020808501808196508360051b810191508286016000805b86811015611ac4578385038a52825180518652860151604087870181905281518188018190529188019160609081890190865b81811015611aad5785518051151584528c81015115158d850152858101518685015284810151858501526080808201516001600160a01b039081169186019190915260a0808301519086015260c0918201511690840152948b019460e090920191600101611a44565b50509c89019c975050509286019250600101611a11565b509298975050505050505050565b600081518084526020808501945080840160005b83811015611b4257815180516001600160a01b03908116895284820151168489015260408082015190890152606080820151908901526080808201519089015260a0908101519088015260c09096019590820190600101611ae6565b509495945050505050565b600081518084526020808501945080840160005b83811015611b425781516001600160a01b031687529582019590820190600101611b61565b6001600160a01b038a1681526103e060208201819052895160408383015260009190611bb661042085018261181b565b91505060208b0151610400840152611bd1604084018b611861565b611bde60c084018a61188d565b87610340840152828103610360840152611bf881886119f2565b9050828103610380840152611c0d8187611ad2565b90508281036103a0840152611c228186611b4d565b90508281036103c0840152611c37818561181b565b9c9b505050505050505050505050565b600060208284031215611c5957600080fd5b81516117d481610f8a565b60006103a0898352611c79602084018a611861565b611c8660a084018961188d565b8661032084015280610340840152611ca0818401876119f2565b9050828103610360840152611cb58186611ad2565b9050828103610380840152611cca818561181b565b9a9950505050505050505050565b60006103c08a8352611ced602084018b611861565b611cfa60a084018a61188d565b8761032084015280610340840152611d14818401886119f2565b9050828103610360840152611d298187611ad2565b9050828103610380840152611d3e8186611b4d565b90508281036103a0840152611d53818561181b565b9b9a505050505050505050505056fea2646970667358221220a3cd422dcec5ff45e7ebe50c447d5fba7a0179b936bac212305d91f13521d85a64736f6c63430008140033",
    "linkReferences": {}
  },
  "methodIdentifiers": {
    "delegateDeployer()": "8f3d964b",
    "launchFundingCyclesFor(uint256,((uint256,uint256,uint256,address),((bool,bool,bool),uint256,uint256,uint256,bool,bool,bool,bool,bool,bool,bool,bool,bool,bool,bool,bool,address,uint256),uint256,(uint256,(bool,bool,uint256,uint256,address,uint256,address)[])[],(address,address,uint256,uint256,uint256,uint256)[],address[],string),address)": "acc0d91f",
    "launchProjectFor(address,((string,uint256),(uint256,uint256,uint256,address),((bool,bool,bool),uint256,uint256,uint256,bool,bool,bool,bool,bool,bool,bool,bool,bool,bool,bool,bool,address,uint256),uint256,(uint256,(bool,bool,uint256,uint256,address,uint256,address)[])[],(address,address,uint256,uint256,uint256,uint256)[],address[],string),address)": "6b69d8f6",
    "operatorStore()": "ad007d63",
    "reconfigureFundingCyclesOf(uint256,((uint256,uint256,uint256,address),((bool,bool,bool),uint256,uint256,uint256,bool,bool,bool,bool,bool,bool,bool,bool,bool,bool,bool,bool,address,uint256),uint256,(uint256,(bool,bool,uint256,uint256,address,uint256,address)[])[],(address,address,uint256,uint256,uint256,uint256)[],string),address)": "6dd867e7"
  },
  "id": 68
}