{
  "abi": [
    {
      "inputs": [
        {
          "internalType": "contract YoloDelegate",
          "name": "_delegateImplementation",
          "type": "address"
        },
        {
          "internalType": "contract IJBDelegatesRegistry",
          "name": "_delegatesRegistry",
          "type": "address"
        }
      ],
      "stateMutability": "nonpayable",
      "type": "constructor"
    },
    {
      "anonymous": false,
      "inputs": [
        {
          "indexed": false,
          "internalType": "uint256",
          "name": "projectId",
          "type": "uint256"
        },
        {
          "indexed": false,
          "internalType": "contract YoloDelegate",
          "name": "delegate",
          "type": "address"
        },
        {
          "indexed": false,
          "internalType": "contract IJBDirectory",
          "name": "directory",
          "type": "address"
        },
        {
          "indexed": false,
          "internalType": "address",
          "name": "caller",
          "type": "address"
        }
      ],
      "name": "DelegateDeployed",
      "type": "event"
    },
    {
      "inputs": [],
      "name": "delegateImplementation",
      "outputs": [
        {
          "internalType": "contract YoloDelegate",
          "name": "",
          "type": "address"
        }
      ],
      "stateMutability": "view",
      "type": "function"
    },
    {
      "inputs": [],
      "name": "delegatesRegistry",
      "outputs": [
        {
          "internalType": "contract IJBDelegatesRegistry",
          "name": "",
          "type": "address"
        }
      ],
      "stateMutability": "view",
      "type": "function"
    },
    {
      "inputs": [
        {
          "internalType": "uint256",
          "name": "_projectId",
          "type": "uint256"
        },
        {
          "internalType": "contract IJBDirectory",
          "name": "_directory",
          "type": "address"
        },
        {
          "internalType": "contract IERC20",
          "name": "_token",
          "type": "address"
        },
        {
          "internalType": "contract IWETH9",
          "name": "_weth",
          "type": "address"
        },
        {
          "internalType": "uint256",
          "name": "_percentSwap",
          "type": "uint256"
        }
      ],
      "name": "deployDelegateFor",
      "outputs": [
        {
          "internalType": "contract YoloDelegate",
          "name": "delegate",
          "type": "address"
        }
      ],
      "stateMutability": "nonpayable",
      "type": "function"
    }
  ],
  "bytecode": {
    "object": "0x60c060405234801561001057600080fd5b506040516103cc3803806103cc83398101604081905261002f9161005e565b6001600160a01b039182166080521660a052610098565b6001600160a01b038116811461005b57600080fd5b50565b6000806040838503121561007157600080fd5b825161007c81610046565b602084015190925061008d81610046565b809150509250929050565b60805160a05161030b6100c1600039600060a1015260008181607a015260ca015261030b6000f3fe608060405234801561001057600080fd5b50600436106100415760003560e01c8063846a1aa314610046578063a5fbd44a14610075578063d574ff041461009c575b600080fd5b61005961005436600461027a565b6100c3565b6040516001600160a01b03909116815260200160405180910390f35b6100597f000000000000000000000000000000000000000000000000000000000000000081565b6100597f000000000000000000000000000000000000000000000000000000000000000081565b60006100ee7f00000000000000000000000000000000000000000000000000000000000000006101c4565b6040516336bc4b3560e21b8152600481018890526001600160a01b03878116602483015286811660448301528581166064830152608482018590529192509082169063daf12cd49060a401600060405180830381600087803b15801561015357600080fd5b505af1158015610167573d6000803e3d6000fd5b5050604080518981526001600160a01b03858116602083015289168183015233606082015290517fbd318535ef41d837ffbebcb4725bbc083c0b01b23e236f2e4c3bcd8db2644a729350908190036080019150a195945050505050565b6000763d602d80600a3d3981f3363d3d373d3d3d363d730000008260601b60e81c176000526e5af43d82803e903d91602b57fd5bf38260781b17602052603760096000f090506001600160a01b03811661025d5760405162461bcd60e51b8152602060048201526016602482015275115490cc4c4d8dce8818dc99585d194819985a5b195960521b604482015260640160405180910390fd5b919050565b6001600160a01b038116811461027757600080fd5b50565b600080600080600060a0868803121561029257600080fd5b8535945060208601356102a481610262565b935060408601356102b481610262565b925060608601356102c481610262565b94979396509194608001359291505056fea26469706673582212207d23256f486a2f0e648c34453d3e3078d47fcd0bac2073cab2af4acf9624c21d64736f6c63430008140033",
    "linkReferences": {}
  },
  "methodIdentifiers": {
    "delegateImplementation()": "a5fbd44a",
    "delegatesRegistry()": "d574ff04",
    "deployDelegateFor(uint256,address,address,address,uint256)": "846a1aa3"
  },
  "id": 52
}