{
  "abi": [
    {
      "inputs": [
        {
          "internalType": "contract YoloDelegate",
          "name": "_delegateImplementation",
          "type": "address"
        },
        {
          "internalType": "contract IJBDelegatesRegistry",
          "name": "_delegatesRegistry",
          "type": "address"
        }
      ],
      "stateMutability": "nonpayable",
      "type": "constructor"
    },
    {
      "anonymous": false,
      "inputs": [
        {
          "indexed": false,
          "internalType": "uint256",
          "name": "projectId",
          "type": "uint256"
        },
        {
          "indexed": false,
          "internalType": "contract YoloDelegate",
          "name": "delegate",
          "type": "address"
        },
        {
          "indexed": false,
          "internalType": "contract IJBDirectory",
          "name": "directory",
          "type": "address"
        },
        {
          "indexed": false,
          "internalType": "address",
          "name": "caller",
          "type": "address"
        }
      ],
      "name": "DelegateDeployed",
      "type": "event"
    },
    {
      "inputs": [],
      "name": "delegateImplementation",
      "outputs": [
        {
          "internalType": "contract YoloDelegate",
          "name": "",
          "type": "address"
        }
      ],
      "stateMutability": "view",
      "type": "function"
    },
    {
      "inputs": [],
      "name": "delegatesRegistry",
      "outputs": [
        {
          "internalType": "contract IJBDelegatesRegistry",
          "name": "",
          "type": "address"
        }
      ],
      "stateMutability": "view",
      "type": "function"
    },
    {
      "inputs": [
        {
          "internalType": "uint256",
          "name": "_projectId",
          "type": "uint256"
        },
        {
          "internalType": "contract IJBDirectory",
          "name": "_directory",
          "type": "address"
        },
        {
          "internalType": "contract IERC20",
          "name": "_token",
          "type": "address"
        },
        {
          "internalType": "contract IWETH9",
          "name": "_weth",
          "type": "address"
        },
        {
          "internalType": "contract IUniswapV3Pool",
          "name": "_pool",
          "type": "address"
        },
        {
          "internalType": "uint256",
          "name": "_percentSwap",
          "type": "uint256"
        }
      ],
      "name": "deployDelegateFor",
      "outputs": [
        {
          "internalType": "contract YoloDelegate",
          "name": "delegate",
          "type": "address"
        }
      ],
      "stateMutability": "nonpayable",
      "type": "function"
    }
  ],
  "bytecode": {
    "object": "0x60c060405234801561001057600080fd5b506040516103ea3803806103ea83398101604081905261002f9161005e565b6001600160a01b039182166080521660a052610098565b6001600160a01b038116811461005b57600080fd5b50565b6000806040838503121561007157600080fd5b825161007c81610046565b602084015190925061008d81610046565b809150509250929050565b60805160a0516103296100c1600039600060a1015260008181607a015260ca01526103296000f3fe608060405234801561001057600080fd5b50600436106100415760003560e01c806331c7e2da14610046578063a5fbd44a14610075578063d574ff041461009c575b600080fd5b610059610054366004610283565b6100c3565b6040516001600160a01b03909116815260200160405180910390f35b6100597f000000000000000000000000000000000000000000000000000000000000000081565b6100597f000000000000000000000000000000000000000000000000000000000000000081565b60006100ee7f00000000000000000000000000000000000000000000000000000000000000006101cd565b6040516342de669960e01b8152600481018990526001600160a01b03888116602483015287811660448301528681166064830152858116608483015260a48201859052919250908216906342de66999060c401600060405180830381600087803b15801561015b57600080fd5b505af115801561016f573d6000803e3d6000fd5b5050604080518a81526001600160a01b0385811660208301528a168183015233606082015290517fbd318535ef41d837ffbebcb4725bbc083c0b01b23e236f2e4c3bcd8db2644a729350908190036080019150a19695505050505050565b6000763d602d80600a3d3981f3363d3d373d3d3d363d730000008260601b60e81c176000526e5af43d82803e903d91602b57fd5bf38260781b17602052603760096000f090506001600160a01b0381166102665760405162461bcd60e51b8152602060048201526016602482015275115490cc4c4d8dce8818dc99585d194819985a5b195960521b604482015260640160405180910390fd5b919050565b6001600160a01b038116811461028057600080fd5b50565b60008060008060008060c0878903121561029c57600080fd5b8635955060208701356102ae8161026b565b945060408701356102be8161026b565b935060608701356102ce8161026b565b925060808701356102de8161026b565b8092505060a08701359050929550929550929556fea26469706673582212207f65cd97641be3657a82d0f957b7f7758b8842b2134715683792299c79ab17e264736f6c63430008140033",
    "linkReferences": {}
  },
  "methodIdentifiers": {
    "delegateImplementation()": "a5fbd44a",
    "delegatesRegistry()": "d574ff04",
    "deployDelegateFor(uint256,address,address,address,address,uint256)": "31c7e2da"
  },
  "id": 64
}