{
  "abi": [
    {
      "inputs": [],
      "stateMutability": "nonpayable",
      "type": "constructor"
    },
    {
      "inputs": [],
      "name": "INVALID_PAYMENT_EVENT",
      "type": "error"
    },
    {
      "inputs": [
        {
          "internalType": "address",
          "name": "caller",
          "type": "address"
        },
        {
          "internalType": "uint256",
          "name": "projectId",
          "type": "uint256"
        },
        {
          "internalType": "uint256",
          "name": "value",
          "type": "uint256"
        }
      ],
      "name": "INVALID_REDEMPTION_EVENT",
      "type": "error"
    },
    {
      "inputs": [
        {
          "internalType": "address",
          "name": "payer",
          "type": "address"
        }
      ],
      "name": "PAYER_NOT_ON_ALLOWLIST",
      "type": "error"
    },
    {
      "inputs": [
        {
          "internalType": "uint256",
          "name": "_projectId",
          "type": "uint256"
        }
      ],
      "name": "addCandidateProjectId",
      "outputs": [],
      "stateMutability": "nonpayable",
      "type": "function"
    },
    {
      "inputs": [
        {
          "internalType": "uint256",
          "name": "",
          "type": "uint256"
        }
      ],
      "name": "candidateProjectIds",
      "outputs": [
        {
          "internalType": "uint256",
          "name": "",
          "type": "uint256"
        }
      ],
      "stateMutability": "view",
      "type": "function"
    },
    {
      "inputs": [
        {
          "components": [
            {
              "internalType": "address",
              "name": "payer",
              "type": "address"
            },
            {
              "internalType": "uint256",
              "name": "projectId",
              "type": "uint256"
            },
            {
              "internalType": "uint256",
              "name": "currentFundingCycleConfiguration",
              "type": "uint256"
            },
            {
              "components": [
                {
                  "internalType": "address",
                  "name": "token",
                  "type": "address"
                },
                {
                  "internalType": "uint256",
                  "name": "value",
                  "type": "uint256"
                },
                {
                  "internalType": "uint256",
                  "name": "decimals",
                  "type": "uint256"
                },
                {
                  "internalType": "uint256",
                  "name": "currency",
                  "type": "uint256"
                }
              ],
              "internalType": "struct JBTokenAmount",
              "name": "amount",
              "type": "tuple"
            },
            {
              "components": [
                {
                  "internalType": "address",
                  "name": "token",
                  "type": "address"
                },
                {
                  "internalType": "uint256",
                  "name": "value",
                  "type": "uint256"
                },
                {
                  "internalType": "uint256",
                  "name": "decimals",
                  "type": "uint256"
                },
                {
                  "internalType": "uint256",
                  "name": "currency",
                  "type": "uint256"
                }
              ],
              "internalType": "struct JBTokenAmount",
              "name": "forwardedAmount",
              "type": "tuple"
            },
            {
              "internalType": "uint256",
              "name": "projectTokenCount",
              "type": "uint256"
            },
            {
              "internalType": "address",
              "name": "beneficiary",
              "type": "address"
            },
            {
              "internalType": "bool",
              "name": "preferClaimedTokens",
              "type": "bool"
            },
            {
              "internalType": "string",
              "name": "memo",
              "type": "string"
            },
            {
              "internalType": "bytes",
              "name": "metadata",
              "type": "bytes"
            }
          ],
          "internalType": "struct JBDidPayData",
          "name": "_data",
          "type": "tuple"
        }
      ],
      "name": "didPay",
      "outputs": [],
      "stateMutability": "payable",
      "type": "function"
    },
    {
      "inputs": [
        {
          "components": [
            {
              "internalType": "address",
              "name": "holder",
              "type": "address"
            },
            {
              "internalType": "uint256",
              "name": "projectId",
              "type": "uint256"
            },
            {
              "internalType": "uint256",
              "name": "currentFundingCycleConfiguration",
              "type": "uint256"
            },
            {
              "internalType": "uint256",
              "name": "projectTokenCount",
              "type": "uint256"
            },
            {
              "components": [
                {
                  "internalType": "address",
                  "name": "token",
                  "type": "address"
                },
                {
                  "internalType": "uint256",
                  "name": "value",
                  "type": "uint256"
                },
                {
                  "internalType": "uint256",
                  "name": "decimals",
                  "type": "uint256"
                },
                {
                  "internalType": "uint256",
                  "name": "currency",
                  "type": "uint256"
                }
              ],
              "internalType": "struct JBTokenAmount",
              "name": "reclaimedAmount",
              "type": "tuple"
            },
            {
              "components": [
                {
                  "internalType": "address",
                  "name": "token",
                  "type": "address"
                },
                {
                  "internalType": "uint256",
                  "name": "value",
                  "type": "uint256"
                },
                {
                  "internalType": "uint256",
                  "name": "decimals",
                  "type": "uint256"
                },
                {
                  "internalType": "uint256",
                  "name": "currency",
                  "type": "uint256"
                }
              ],
              "internalType": "struct JBTokenAmount",
              "name": "forwardedAmount",
              "type": "tuple"
            },
            {
              "internalType": "address payable",
              "name": "beneficiary",
              "type": "address"
            },
            {
              "internalType": "string",
              "name": "memo",
              "type": "string"
            },
            {
              "internalType": "bytes",
              "name": "metadata",
              "type": "bytes"
            }
          ],
          "internalType": "struct JBDidRedeemData",
          "name": "_data",
          "type": "tuple"
        }
      ],
      "name": "didRedeem",
      "outputs": [],
      "stateMutability": "payable",
      "type": "function"
    },
    {
      "inputs": [],
      "name": "directory",
      "outputs": [
        {
          "internalType": "contract IJBDirectory",
          "name": "",
          "type": "address"
        }
      ],
      "stateMutability": "view",
      "type": "function"
    },
    {
      "inputs": [],
      "name": "getRandomCandidateProjectId",
      "outputs": [
        {
          "internalType": "uint256",
          "name": "",
          "type": "uint256"
        }
      ],
      "stateMutability": "view",
      "type": "function"
    },
    {
      "inputs": [
        {
          "internalType": "uint256",
          "name": "_projectId",
          "type": "uint256"
        },
        {
          "internalType": "contract IJBDirectory",
          "name": "_directory",
          "type": "address"
        }
      ],
      "name": "initialize",
      "outputs": [],
      "stateMutability": "nonpayable",
      "type": "function"
    },
    {
      "inputs": [
        {
          "components": [
            {
              "internalType": "contract IJBPaymentTerminal",
              "name": "terminal",
              "type": "address"
            },
            {
              "internalType": "address",
              "name": "payer",
              "type": "address"
            },
            {
              "components": [
                {
                  "internalType": "address",
                  "name": "token",
                  "type": "address"
                },
                {
                  "internalType": "uint256",
                  "name": "value",
                  "type": "uint256"
                },
                {
                  "internalType": "uint256",
                  "name": "decimals",
                  "type": "uint256"
                },
                {
                  "internalType": "uint256",
                  "name": "currency",
                  "type": "uint256"
                }
              ],
              "internalType": "struct JBTokenAmount",
              "name": "amount",
              "type": "tuple"
            },
            {
              "internalType": "uint256",
              "name": "projectId",
              "type": "uint256"
            },
            {
              "internalType": "uint256",
              "name": "currentFundingCycleConfiguration",
              "type": "uint256"
            },
            {
              "internalType": "address",
              "name": "beneficiary",
              "type": "address"
            },
            {
              "internalType": "uint256",
              "name": "weight",
              "type": "uint256"
            },
            {
              "internalType": "uint256",
              "name": "reservedRate",
              "type": "uint256"
            },
            {
              "internalType": "string",
              "name": "memo",
              "type": "string"
            },
            {
              "internalType": "bytes",
              "name": "metadata",
              "type": "bytes"
            }
          ],
          "internalType": "struct JBPayParamsData",
          "name": "_data",
          "type": "tuple"
        }
      ],
      "name": "payParams",
      "outputs": [
        {
          "internalType": "uint256",
          "name": "weight",
          "type": "uint256"
        },
        {
          "internalType": "string",
          "name": "memo",
          "type": "string"
        },
        {
          "components": [
            {
              "internalType": "contract IJBPayDelegate",
              "name": "delegate",
              "type": "address"
            },
            {
              "internalType": "uint256",
              "name": "amount",
              "type": "uint256"
            }
          ],
          "internalType": "struct JBPayDelegateAllocation[]",
          "name": "delegateAllocations",
          "type": "tuple[]"
        }
      ],
      "stateMutability": "view",
      "type": "function"
    },
    {
      "inputs": [
        {
          "internalType": "address",
          "name": "",
          "type": "address"
        }
      ],
      "name": "paymentFromAddressIsAllowed",
      "outputs": [
        {
          "internalType": "bool",
          "name": "",
          "type": "bool"
        }
      ],
      "stateMutability": "view",
      "type": "function"
    },
    {
      "inputs": [],
      "name": "projectId",
      "outputs": [
        {
          "internalType": "uint256",
          "name": "",
          "type": "uint256"
        }
      ],
      "stateMutability": "view",
      "type": "function"
    },
    {
      "inputs": [
        {
          "components": [
            {
              "internalType": "contract IJBPaymentTerminal",
              "name": "terminal",
              "type": "address"
            },
            {
              "internalType": "address",
              "name": "holder",
              "type": "address"
            },
            {
              "internalType": "uint256",
              "name": "projectId",
              "type": "uint256"
            },
            {
              "internalType": "uint256",
              "name": "currentFundingCycleConfiguration",
              "type": "uint256"
            },
            {
              "internalType": "uint256",
              "name": "tokenCount",
              "type": "uint256"
            },
            {
              "internalType": "uint256",
              "name": "totalSupply",
              "type": "uint256"
            },
            {
              "internalType": "uint256",
              "name": "overflow",
              "type": "uint256"
            },
            {
              "components": [
                {
                  "internalType": "address",
                  "name": "token",
                  "type": "address"
                },
                {
                  "internalType": "uint256",
                  "name": "value",
                  "type": "uint256"
                },
                {
                  "internalType": "uint256",
                  "name": "decimals",
                  "type": "uint256"
                },
                {
                  "internalType": "uint256",
                  "name": "currency",
                  "type": "uint256"
                }
              ],
              "internalType": "struct JBTokenAmount",
              "name": "reclaimAmount",
              "type": "tuple"
            },
            {
              "internalType": "bool",
              "name": "useTotalOverflow",
              "type": "bool"
            },
            {
              "internalType": "uint256",
              "name": "redemptionRate",
              "type": "uint256"
            },
            {
              "internalType": "string",
              "name": "memo",
              "type": "string"
            },
            {
              "internalType": "bytes",
              "name": "metadata",
              "type": "bytes"
            }
          ],
          "internalType": "struct JBRedeemParamsData",
          "name": "_data",
          "type": "tuple"
        }
      ],
      "name": "redeemParams",
      "outputs": [
        {
          "internalType": "uint256",
          "name": "reclaimAmount",
          "type": "uint256"
        },
        {
          "internalType": "string",
          "name": "memo",
          "type": "string"
        },
        {
          "components": [
            {
              "internalType": "contract IJBRedemptionDelegate",
              "name": "delegate",
              "type": "address"
            },
            {
              "internalType": "uint256",
              "name": "amount",
              "type": "uint256"
            }
          ],
          "internalType": "struct JBRedemptionDelegateAllocation[]",
          "name": "delegateAllocations",
          "type": "tuple[]"
        }
      ],
      "stateMutability": "view",
      "type": "function"
    },
    {
      "inputs": [
        {
          "internalType": "bytes4",
          "name": "_interfaceId",
          "type": "bytes4"
        }
      ],
      "name": "supportsInterface",
      "outputs": [
        {
          "internalType": "bool",
          "name": "",
          "type": "bool"
        }
      ],
      "stateMutability": "view",
      "type": "function"
    }
  ],
  "bytecode": {
    "object": "0x608060405234801561001057600080fd5b50610bac806100206000396000f3fe6080604052600436106100a75760003560e01c8063c41c2f2411610064578063c41c2f241461017e578063d46cf171146101b6578063da35a26f146101d6578063da9ee8b7146101f6578063fbf9b54414610209578063fd8f145b1461025857600080fd5b806301ffc9a7146100ac578063182a7f2b146100e15780632b13c58f146101045780633fafa12714610119578063a51cfd181461012f578063bfd726b11461015e575b600080fd5b3480156100b857600080fd5b506100cc6100c73660046107a7565b610288565b60405190151581526020015b60405180910390f35b3480156100ed57600080fd5b506100f66102da565b6040519081526020016100d8565b6101176101123660046107f1565b61038f565b005b34801561012557600080fd5b506100f660005481565b34801561013b57600080fd5b5061014f61014a3660046107f1565b610455565b6040516100d893929190610874565b34801561016a57600080fd5b506100f66101793660046108e6565b610538565b34801561018a57600080fd5b5060025461019e906001600160a01b031681565b6040516001600160a01b0390911681526020016100d8565b3480156101c257600080fd5b5061014f6101d13660046108ff565b610559565b3480156101e257600080fd5b506101176101f1366004610950565b610570565b610117610204366004610980565b6105a4565b34801561021557600080fd5b506101176102243660046108e6565b6001805480820182556000919091527fb10e2d527612073b26eecdfd717e6a320cf44b4afac2b0732d9fcbe2b7fa0cf60155565b34801561026457600080fd5b506100cc6102733660046109bc565b60036020526000908152604090205460ff1681565b60006001600160e01b031982166371700c6960e01b14806102b957506001600160e01b0319821663da9ee8b760e01b145b806102d457506001600160e01b03198216632b13c58f60e01b145b92915050565b6001546000906103315760405162461bcd60e51b815260206004820152601860248201527f4e6f2063616e6469646174652070726f6a65637420494473000000000000000060448201526064015b60405180910390fd5b6001546040805142602080830191909152488284015282518083038401815260609092019092528051910120600091610369916109d9565b90506001818154811061037e5761037e6109fb565b906000526020600020015491505090565b341515806104115750600254600054604051636e49181f60e01b815260048101919091523360248201526001600160a01b0390911690636e49181f90604401602060405180830381865afa1580156103eb573d6000803e3d6000fd5b505050506040513d601f19601f8201168201806040525081019061040f9190610a1f565b155b806104225750600054816020013514155b156104525760405163dbd1cb8760e01b815233600482015260208201356024820152346044820152606401610328565b50565b61010081013560608061046c6101a0850185610a3c565b8080601f016020809104026020016040519081016040528093929190818152602001838380828437600092019190915250929450600192506104ac915050565b6040519080825280602002602001820160405280156104f157816020015b60408051808201909152600080825260208201528152602001906001900390816104ca5790505b5090506040518060400160405280306001600160a01b03168152602001600081525081600081518110610526576105266109fb565b60200260200101819052509193909250565b6001818154811061054857600080fd5b600091825260209091200154905081565b61012081013560608061046c610160850185610a3c565b6000541561057d57600080fd5b600091909155600280546001600160a01b0319166001600160a01b03909216919091179055565b600254600054604051636e49181f60e01b815260048101919091523360248201526001600160a01b0390911690636e49181f90604401602060405180830381865afa1580156105f7573d6000803e3d6000fd5b505050506040513d601f19601f8201168201806040525081019061061b9190610a1f565b158061062d5750600054816020013514155b1561064b576040516331c57b1b60e21b815260040160405180910390fd5b60006106556102da565b600254604051630862026560e41b81526004810183905261eeee60248201529192506000916001600160a01b0390911690638620265090604401602060405180830381865afa1580156106ac573d6000803e3d6000fd5b505050506040513d601f19601f820116820180604052508101906106d09190610a8a565b90506001600160a01b038116631ebc263f3484608087018035906106f79060608a016109bc565b6107096101a08a016101808b016109bc565b600061071d6101c08c016101a08d01610aa7565b61072b6101c08d018d610a3c565b6107396101e08f018f610a3c565b6040518c63ffffffff1660e01b815260040161075e9a99989796959493929190610aed565b60206040518083038185885af115801561077c573d6000803e3d6000fd5b50505050506040513d601f19601f820116820180604052508101906107a19190610b5d565b50505050565b6000602082840312156107b957600080fd5b81356001600160e01b0319811681146107d157600080fd5b9392505050565b60006101e082840312156107eb57600080fd5b50919050565b60006020828403121561080357600080fd5b813567ffffffffffffffff81111561081a57600080fd5b610826848285016107d8565b949350505050565b6000815180845260005b8181101561085457602081850181015186830182015201610838565b506000602082860101526020601f19601f83011685010191505092915050565b8381526000602060608184015261088e606084018661082e565b83810360408581019190915285518083528387019284019060005b818110156108d757845180516001600160a01b031684528601518684015293850193918301916001016108a9565b50909998505050505050505050565b6000602082840312156108f857600080fd5b5035919050565b60006020828403121561091157600080fd5b813567ffffffffffffffff81111561092857600080fd5b82016101a081850312156107d157600080fd5b6001600160a01b038116811461045257600080fd5b6000806040838503121561096357600080fd5b8235915060208301356109758161093b565b809150509250929050565b60006020828403121561099257600080fd5b813567ffffffffffffffff8111156109a957600080fd5b820161020081850312156107d157600080fd5b6000602082840312156109ce57600080fd5b81356107d18161093b565b6000826109f657634e487b7160e01b600052601260045260246000fd5b500690565b634e487b7160e01b600052603260045260246000fd5b801515811461045257600080fd5b600060208284031215610a3157600080fd5b81516107d181610a11565b6000808335601e19843603018112610a5357600080fd5b83018035915067ffffffffffffffff821115610a6e57600080fd5b602001915036819003821315610a8357600080fd5b9250929050565b600060208284031215610a9c57600080fd5b81516107d18161093b565b600060208284031215610ab957600080fd5b81356107d181610a11565b81835281816020850137506000828201602090810191909152601f909101601f19169091010190565b8a8152602081018a90526001600160a01b038981166040830152881660608201526080810187905285151560a082015261010060c08201819052600090610b378382018789610ac4565b905082810360e0840152610b4c818587610ac4565b9d9c50505050505050505050505050565b600060208284031215610b6f57600080fd5b505191905056fea2646970667358221220901e90e159b89652a7d08a098dd3ab549587c896504110a91dba1d4437126e4b64736f6c63430008140033",
    "linkReferences": {}
  },
  "methodIdentifiers": {
    "addCandidateProjectId(uint256)": "fbf9b544",
    "candidateProjectIds(uint256)": "bfd726b1",
    "didPay((address,uint256,uint256,(address,uint256,uint256,uint256),(address,uint256,uint256,uint256),uint256,address,bool,string,bytes))": "da9ee8b7",
    "didRedeem((address,uint256,uint256,uint256,(address,uint256,uint256,uint256),(address,uint256,uint256,uint256),address,string,bytes))": "2b13c58f",
    "directory()": "c41c2f24",
    "getRandomCandidateProjectId()": "182a7f2b",
    "initialize(uint256,address)": "da35a26f",
    "payParams((address,address,(address,uint256,uint256,uint256),uint256,uint256,address,uint256,uint256,string,bytes))": "d46cf171",
    "paymentFromAddressIsAllowed(address)": "fd8f145b",
    "projectId()": "3fafa127",
    "redeemParams((address,address,uint256,uint256,uint256,uint256,uint256,(address,uint256,uint256,uint256),bool,uint256,string,bytes))": "a51cfd18",
    "supportsInterface(bytes4)": "01ffc9a7"
  },
  "id": 65
}