{
  "abi": [
    {
      "inputs": [
        {
          "internalType": "contract IWETH9",
          "name": "_weth",
          "type": "address"
        }
      ],
      "stateMutability": "nonpayable",
      "type": "constructor"
    },
    {
      "inputs": [],
      "name": "INVALID_PAYMENT_EVENT",
      "type": "error"
    },
    {
      "inputs": [],
      "name": "INVALID_POOL",
      "type": "error"
    },
    {
      "inputs": [
        {
          "internalType": "uint256",
          "name": "prod1",
          "type": "uint256"
        },
        {
          "internalType": "uint256",
          "name": "denominator",
          "type": "uint256"
        }
      ],
      "name": "PRBMath__MulDivOverflow",
      "type": "error"
    },
    {
      "inputs": [],
      "name": "UNAUTHORIZED",
      "type": "error"
    },
    {
      "inputs": [],
      "name": "MAX_PERCENT_SWAP",
      "outputs": [
        {
          "internalType": "uint256",
          "name": "",
          "type": "uint256"
        }
      ],
      "stateMutability": "view",
      "type": "function"
    },
    {
      "inputs": [
        {
          "components": [
            {
              "internalType": "address",
              "name": "payer",
              "type": "address"
            },
            {
              "internalType": "uint256",
              "name": "projectId",
              "type": "uint256"
            },
            {
              "internalType": "uint256",
              "name": "currentFundingCycleConfiguration",
              "type": "uint256"
            },
            {
              "components": [
                {
                  "internalType": "address",
                  "name": "token",
                  "type": "address"
                },
                {
                  "internalType": "uint256",
                  "name": "value",
                  "type": "uint256"
                },
                {
                  "internalType": "uint256",
                  "name": "decimals",
                  "type": "uint256"
                },
                {
                  "internalType": "uint256",
                  "name": "currency",
                  "type": "uint256"
                }
              ],
              "internalType": "struct JBTokenAmount",
              "name": "amount",
              "type": "tuple"
            },
            {
              "components": [
                {
                  "internalType": "address",
                  "name": "token",
                  "type": "address"
                },
                {
                  "internalType": "uint256",
                  "name": "value",
                  "type": "uint256"
                },
                {
                  "internalType": "uint256",
                  "name": "decimals",
                  "type": "uint256"
                },
                {
                  "internalType": "uint256",
                  "name": "currency",
                  "type": "uint256"
                }
              ],
              "internalType": "struct JBTokenAmount",
              "name": "forwardedAmount",
              "type": "tuple"
            },
            {
              "internalType": "uint256",
              "name": "projectTokenCount",
              "type": "uint256"
            },
            {
              "internalType": "address",
              "name": "beneficiary",
              "type": "address"
            },
            {
              "internalType": "bool",
              "name": "preferClaimedTokens",
              "type": "bool"
            },
            {
              "internalType": "string",
              "name": "memo",
              "type": "string"
            },
            {
              "internalType": "bytes",
              "name": "metadata",
              "type": "bytes"
            }
          ],
          "internalType": "struct JBDidPayData",
          "name": "_data",
          "type": "tuple"
        }
      ],
      "name": "didPay",
      "outputs": [],
      "stateMutability": "payable",
      "type": "function"
    },
    {
      "inputs": [],
      "name": "directory",
      "outputs": [
        {
          "internalType": "contract IJBDirectory",
          "name": "",
          "type": "address"
        }
      ],
      "stateMutability": "view",
      "type": "function"
    },
    {
      "inputs": [
        {
          "internalType": "uint256",
          "name": "_projectId",
          "type": "uint256"
        },
        {
          "internalType": "contract IJBDirectory",
          "name": "_directory",
          "type": "address"
        },
        {
          "internalType": "contract IUniswapV3Pool",
          "name": "_pool",
          "type": "address"
        },
        {
          "internalType": "uint256",
          "name": "_percentSwap",
          "type": "uint256"
        }
      ],
      "name": "initialize",
      "outputs": [],
      "stateMutability": "nonpayable",
      "type": "function"
    },
    {
      "inputs": [
        {
          "components": [
            {
              "internalType": "contract IJBPaymentTerminal",
              "name": "terminal",
              "type": "address"
            },
            {
              "internalType": "address",
              "name": "payer",
              "type": "address"
            },
            {
              "components": [
                {
                  "internalType": "address",
                  "name": "token",
                  "type": "address"
                },
                {
                  "internalType": "uint256",
                  "name": "value",
                  "type": "uint256"
                },
                {
                  "internalType": "uint256",
                  "name": "decimals",
                  "type": "uint256"
                },
                {
                  "internalType": "uint256",
                  "name": "currency",
                  "type": "uint256"
                }
              ],
              "internalType": "struct JBTokenAmount",
              "name": "amount",
              "type": "tuple"
            },
            {
              "internalType": "uint256",
              "name": "projectId",
              "type": "uint256"
            },
            {
              "internalType": "uint256",
              "name": "currentFundingCycleConfiguration",
              "type": "uint256"
            },
            {
              "internalType": "address",
              "name": "beneficiary",
              "type": "address"
            },
            {
              "internalType": "uint256",
              "name": "weight",
              "type": "uint256"
            },
            {
              "internalType": "uint256",
              "name": "reservedRate",
              "type": "uint256"
            },
            {
              "internalType": "string",
              "name": "memo",
              "type": "string"
            },
            {
              "internalType": "bytes",
              "name": "metadata",
              "type": "bytes"
            }
          ],
          "internalType": "struct JBPayParamsData",
          "name": "_data",
          "type": "tuple"
        }
      ],
      "name": "payParams",
      "outputs": [
        {
          "internalType": "uint256",
          "name": "weight",
          "type": "uint256"
        },
        {
          "internalType": "string",
          "name": "memo",
          "type": "string"
        },
        {
          "components": [
            {
              "internalType": "contract IJBPayDelegate",
              "name": "delegate",
              "type": "address"
            },
            {
              "internalType": "uint256",
              "name": "amount",
              "type": "uint256"
            }
          ],
          "internalType": "struct JBPayDelegateAllocation[]",
          "name": "delegateAllocations",
          "type": "tuple[]"
        }
      ],
      "stateMutability": "view",
      "type": "function"
    },
    {
      "inputs": [],
      "name": "percentSwap",
      "outputs": [
        {
          "internalType": "uint256",
          "name": "",
          "type": "uint256"
        }
      ],
      "stateMutability": "view",
      "type": "function"
    },
    {
      "inputs": [],
      "name": "pool",
      "outputs": [
        {
          "internalType": "contract IUniswapV3Pool",
          "name": "",
          "type": "address"
        }
      ],
      "stateMutability": "view",
      "type": "function"
    },
    {
      "inputs": [],
      "name": "projectId",
      "outputs": [
        {
          "internalType": "uint256",
          "name": "",
          "type": "uint256"
        }
      ],
      "stateMutability": "view",
      "type": "function"
    },
    {
      "inputs": [
        {
          "components": [
            {
              "internalType": "contract IJBPaymentTerminal",
              "name": "terminal",
              "type": "address"
            },
            {
              "internalType": "address",
              "name": "holder",
              "type": "address"
            },
            {
              "internalType": "uint256",
              "name": "projectId",
              "type": "uint256"
            },
            {
              "internalType": "uint256",
              "name": "currentFundingCycleConfiguration",
              "type": "uint256"
            },
            {
              "internalType": "uint256",
              "name": "tokenCount",
              "type": "uint256"
            },
            {
              "internalType": "uint256",
              "name": "totalSupply",
              "type": "uint256"
            },
            {
              "internalType": "uint256",
              "name": "overflow",
              "type": "uint256"
            },
            {
              "components": [
                {
                  "internalType": "address",
                  "name": "token",
                  "type": "address"
                },
                {
                  "internalType": "uint256",
                  "name": "value",
                  "type": "uint256"
                },
                {
                  "internalType": "uint256",
                  "name": "decimals",
                  "type": "uint256"
                },
                {
                  "internalType": "uint256",
                  "name": "currency",
                  "type": "uint256"
                }
              ],
              "internalType": "struct JBTokenAmount",
              "name": "reclaimAmount",
              "type": "tuple"
            },
            {
              "internalType": "bool",
              "name": "useTotalOverflow",
              "type": "bool"
            },
            {
              "internalType": "uint256",
              "name": "redemptionRate",
              "type": "uint256"
            },
            {
              "internalType": "string",
              "name": "memo",
              "type": "string"
            },
            {
              "internalType": "bytes",
              "name": "metadata",
              "type": "bytes"
            }
          ],
          "internalType": "struct JBRedeemParamsData",
          "name": "_data",
          "type": "tuple"
        }
      ],
      "name": "redeemParams",
      "outputs": [
        {
          "internalType": "uint256",
          "name": "reclaimAmount",
          "type": "uint256"
        },
        {
          "internalType": "string",
          "name": "memo",
          "type": "string"
        },
        {
          "components": [
            {
              "internalType": "contract IJBRedemptionDelegate",
              "name": "delegate",
              "type": "address"
            },
            {
              "internalType": "uint256",
              "name": "amount",
              "type": "uint256"
            }
          ],
          "internalType": "struct JBRedemptionDelegateAllocation[]",
          "name": "delegateAllocations",
          "type": "tuple[]"
        }
      ],
      "stateMutability": "view",
      "type": "function"
    },
    {
      "inputs": [
        {
          "internalType": "contract IUniswapV3Pool",
          "name": "_pool",
          "type": "address"
        }
      ],
      "name": "setPool",
      "outputs": [],
      "stateMutability": "nonpayable",
      "type": "function"
    },
    {
      "inputs": [
        {
          "internalType": "bytes4",
          "name": "_interfaceId",
          "type": "bytes4"
        }
      ],
      "name": "supportsInterface",
      "outputs": [
        {
          "internalType": "bool",
          "name": "",
          "type": "bool"
        }
      ],
      "stateMutability": "view",
      "type": "function"
    },
    {
      "inputs": [
        {
          "internalType": "int256",
          "name": "amount0Delta",
          "type": "int256"
        },
        {
          "internalType": "int256",
          "name": "amount1Delta",
          "type": "int256"
        },
        {
          "internalType": "bytes",
          "name": "data",
          "type": "bytes"
        }
      ],
      "name": "uniswapV3SwapCallback",
      "outputs": [],
      "stateMutability": "nonpayable",
      "type": "function"
    },
    {
      "inputs": [],
      "name": "weth",
      "outputs": [
        {
          "internalType": "contract IWETH9",
          "name": "",
          "type": "address"
        }
      ],
      "stateMutability": "view",
      "type": "function"
    }
  ],
  "bytecode": {
    "object": "0x60a060405234801561001057600080fd5b506040516110d43803806110d483398101604081905261002f91610040565b6001600160a01b0316608052610070565b60006020828403121561005257600080fd5b81516001600160a01b038116811461006957600080fd5b9392505050565b60805161102d6100a760003960008181610182015281816103f10152818161097b01528181610a950152610b2d015261102d6000f3fe6080604052600436106100c25760003560e01c8063a51cfd181161007f578063d46cf17111610059578063d46cf17114610231578063da9ee8b714610251578063e37259e914610264578063fa461e331461028457600080fd5b8063a51cfd18146101c6578063c41c2f24146101fb578063cc229b8f1461021b57600080fd5b806301ffc9a7146100c757806316f0115b146100fc5780632f1979d2146101345780633fafa1271461015a5780633fc8cef3146101705780634437152a146101a4575b600080fd5b3480156100d357600080fd5b506100e76100e2366004610c39565b6102a4565b60405190151581526020015b60405180910390f35b34801561010857600080fd5b5060025461011c906001600160a01b031681565b6040516001600160a01b0390911681526020016100f3565b34801561014057600080fd5b5061014c633b9aca0081565b6040519081526020016100f3565b34801561016657600080fd5b5061014c60005481565b34801561017c57600080fd5b5061011c7f000000000000000000000000000000000000000000000000000000000000000081565b3480156101b057600080fd5b506101c46101bf366004610c7b565b6102db565b005b3480156101d257600080fd5b506101ec6101e1366004610c98565b506000906060908190565b6040516100f393929190610d1a565b34801561020757600080fd5b5060015461011c906001600160a01b031681565b34801561022757600080fd5b5061014c60035481565b34801561023d57600080fd5b506101ec61024c366004610d8c565b6104c5565b6101c461025f366004610dc8565b6105be565b34801561027057600080fd5b506101c461027f366004610e04565b61096c565b34801561029057600080fd5b506101c461029f366004610e4c565b610a63565b60006001600160e01b031982166371700c6960e01b14806102d557506001600160e01b0319821663da9ee8b760e01b145b92915050565b600154604080516322de550f60e21b815290516000926001600160a01b031691638b79543c9160048083019260209291908290030181865afa158015610325573d6000803e3d6000fd5b505050506040513d601f19601f820116820180604052508101906103499190610ecc565b6000546040516331a9108f60e11b81529192506001600160a01b03831691636352211e9161037d9160040190815260200190565b602060405180830381865afa15801561039a573d6000803e3d6000fd5b505050506040513d601f19601f820116820180604052508101906103be9190610ecc565b6001600160a01b0316336001600160a01b0316146103ef5760405163075fd2b160e01b815260040160405180910390fd5b7f00000000000000000000000000000000000000000000000000000000000000006001600160a01b0316826001600160a01b0316630dfe16816040518163ffffffff1660e01b8152600401602060405180830381865afa158015610457573d6000803e3d6000fd5b505050506040513d601f19601f8201168201806040525081019061047b9190610ecc565b6001600160a01b0316146104a25760405163015216d560e21b815260040160405180910390fd5b50600280546001600160a01b0319166001600160a01b0392909216919091179055565b6101208101356060806104dc610160850185610ee9565b8080601f0160208091040260200160405190810160405280939291908181526020018383808284376000920191909152509294506001925061051c915050565b60405190808252806020026020018201604052801561056157816020015b604080518082019091526000808252602082015281526020019060019003908161053a5790505b5090506040518060400160405280306001600160a01b031681526020016105968660400160200135600354633b9aca00610b62565b815250816000815181106105ac576105ac610f37565b60200260200101819052509193909250565b600154600054604051636e49181f60e01b815260048101919091523360248201526001600160a01b0390911690636e49181f90604401602060405180830381865afa158015610611573d6000803e3d6000fd5b505050506040513d601f19601f820116820180604052508101906106359190610f4d565b15806106475750600054816020013514155b15610665576040516331c57b1b60e21b815260040160405180910390fd5b600254610100820135906001600160a01b031663128acb08306001846106906401000276a383610f6f565b60405160e086901b6001600160e01b03191681526001600160a01b03948516600482015292151560248401526044830191909152909116606482015260a06084820152600060a482015260c40160408051808303816000875af11580156106fb573d6000803e3d6000fd5b505050506040513d601f19601f8201168201806040525081019061071f9190610fa4565b5050600154604080516322de550f60e21b815290516000926001600160a01b031691638b79543c9160048083019260209291908290030181865afa15801561076b573d6000803e3d6000fd5b505050506040513d601f19601f8201168201806040525081019061078f9190610ecc565b90506000816001600160a01b0316636352211e6000546040518263ffffffff1660e01b81526004016107c391815260200190565b602060405180830381865afa1580156107e0573d6000803e3d6000fd5b505050506040513d601f19601f820116820180604052508101906108049190610ecc565b90506000600260009054906101000a90046001600160a01b03166001600160a01b031663d21220a76040518163ffffffff1660e01b8152600401602060405180830381865afa15801561085b573d6000803e3d6000fd5b505050506040513d601f19601f8201168201806040525081019061087f9190610ecc565b6040516370a0823160e01b81523060048201529091506001600160a01b0382169063a9059cbb90849083906370a0823190602401602060405180830381865afa1580156108d0573d6000803e3d6000fd5b505050506040513d601f19601f820116820180604052508101906108f49190610fc8565b6040516001600160e01b031960e085901b1681526001600160a01b03909216600483015260248201526044015b6020604051808303816000875af1158015610940573d6000803e3d6000fd5b505050506040513d601f19601f820116820180604052508101906109649190610f4d565b505050505050565b6000541561097957600080fd5b7f00000000000000000000000000000000000000000000000000000000000000006001600160a01b0316826001600160a01b0316630dfe16816040518163ffffffff1660e01b8152600401602060405180830381865afa1580156109e1573d6000803e3d6000fd5b505050506040513d601f19601f82011682018060405250810190610a059190610ecc565b6001600160a01b031614610a2c5760405163015216d560e21b815260040160405180910390fd5b600093909355600180546001600160a01b039384166001600160a01b03199182161790915560028054929093169116179055600355565b6002546001600160a01b03163314610a8e5760405163075fd2b160e01b815260040160405180910390fd5b60008490507f00000000000000000000000000000000000000000000000000000000000000006001600160a01b031663d0e30db0826040518263ffffffff1660e01b81526004016000604051808303818588803b158015610aee57600080fd5b505af1158015610b02573d6000803e3d6000fd5b505060025460405163a9059cbb60e01b81526001600160a01b039182166004820152602481018690527f0000000000000000000000000000000000000000000000000000000000000000909116935063a9059cbb92506044019050610921565b6000808060001985870985870292508281108382030391505080600003610b9c57838281610b9257610b92610fe1565b0492505050610c32565b838110610bca57604051631dcf306360e21b8152600481018290526024810185905260440160405180910390fd5b600084868809851960019081018716968790049682860381900495909211909303600082900391909104909201919091029190911760038402600290811880860282030280860282030280860282030280860282030280860282030280860290910302029150505b9392505050565b600060208284031215610c4b57600080fd5b81356001600160e01b031981168114610c3257600080fd5b6001600160a01b0381168114610c7857600080fd5b50565b600060208284031215610c8d57600080fd5b8135610c3281610c63565b600060208284031215610caa57600080fd5b813567ffffffffffffffff811115610cc157600080fd5b82016101e08185031215610c3257600080fd5b6000815180845260005b81811015610cfa57602081850181015186830182015201610cde565b506000602082860101526020601f19601f83011685010191505092915050565b83815260006020606081840152610d346060840186610cd4565b83810360408581019190915285518083528387019284019060005b81811015610d7d57845180516001600160a01b03168452860151868401529385019391830191600101610d4f565b50909998505050505050505050565b600060208284031215610d9e57600080fd5b813567ffffffffffffffff811115610db557600080fd5b82016101a08185031215610c3257600080fd5b600060208284031215610dda57600080fd5b813567ffffffffffffffff811115610df157600080fd5b82016102008185031215610c3257600080fd5b60008060008060808587031215610e1a57600080fd5b843593506020850135610e2c81610c63565b92506040850135610e3c81610c63565b9396929550929360600135925050565b60008060008060608587031215610e6257600080fd5b8435935060208501359250604085013567ffffffffffffffff80821115610e8857600080fd5b818701915087601f830112610e9c57600080fd5b813581811115610eab57600080fd5b886020828501011115610ebd57600080fd5b95989497505060200194505050565b600060208284031215610ede57600080fd5b8151610c3281610c63565b6000808335601e19843603018112610f0057600080fd5b83018035915067ffffffffffffffff821115610f1b57600080fd5b602001915036819003821315610f3057600080fd5b9250929050565b634e487b7160e01b600052603260045260246000fd5b600060208284031215610f5f57600080fd5b81518015158114610c3257600080fd5b6001600160a01b03818116838216019080821115610f9d57634e487b7160e01b600052601160045260246000fd5b5092915050565b60008060408385031215610fb757600080fd5b505080516020909101519092909150565b600060208284031215610fda57600080fd5b5051919050565b634e487b7160e01b600052601260045260246000fdfea264697066735822122083b67e8901bdba5f63a2a475444630182a35e3aa0fa29475b8b88605327f4e4c64736f6c63430008140033",
    "linkReferences": {}
  },
  "methodIdentifiers": {
    "MAX_PERCENT_SWAP()": "2f1979d2",
    "didPay((address,uint256,uint256,(address,uint256,uint256,uint256),(address,uint256,uint256,uint256),uint256,address,bool,string,bytes))": "da9ee8b7",
    "directory()": "c41c2f24",
    "initialize(uint256,address,address,uint256)": "e37259e9",
    "payParams((address,address,(address,uint256,uint256,uint256),uint256,uint256,address,uint256,uint256,string,bytes))": "d46cf171",
    "percentSwap()": "cc229b8f",
    "pool()": "16f0115b",
    "projectId()": "3fafa127",
    "redeemParams((address,address,uint256,uint256,uint256,uint256,uint256,(address,uint256,uint256,uint256),bool,uint256,string,bytes))": "a51cfd18",
    "setPool(address)": "4437152a",
    "supportsInterface(bytes4)": "01ffc9a7",
    "uniswapV3SwapCallback(int256,int256,bytes)": "fa461e33",
    "weth()": "3fc8cef3"
  },
  "id": 63
}