{
  "abi": [
    {
      "inputs": [
        {
          "internalType": "contract IWETH9",
          "name": "_weth",
          "type": "address"
        }
      ],
      "stateMutability": "nonpayable",
      "type": "constructor"
    },
    {
      "inputs": [],
      "name": "INVALID_PAYMENT_EVENT",
      "type": "error"
    },
    {
      "inputs": [],
      "name": "INVALID_POOL",
      "type": "error"
    },
    {
      "inputs": [
        {
          "internalType": "uint256",
          "name": "prod1",
          "type": "uint256"
        },
        {
          "internalType": "uint256",
          "name": "denominator",
          "type": "uint256"
        }
      ],
      "name": "PRBMath__MulDivOverflow",
      "type": "error"
    },
    {
      "inputs": [],
      "name": "UNAUTHORIZED",
      "type": "error"
    },
    {
      "inputs": [],
      "name": "MAX_PERCENT_SWAP",
      "outputs": [
        {
          "internalType": "uint256",
          "name": "",
          "type": "uint256"
        }
      ],
      "stateMutability": "view",
      "type": "function"
    },
    {
      "inputs": [
        {
          "components": [
            {
              "internalType": "address",
              "name": "payer",
              "type": "address"
            },
            {
              "internalType": "uint256",
              "name": "projectId",
              "type": "uint256"
            },
            {
              "internalType": "uint256",
              "name": "currentFundingCycleConfiguration",
              "type": "uint256"
            },
            {
              "components": [
                {
                  "internalType": "address",
                  "name": "token",
                  "type": "address"
                },
                {
                  "internalType": "uint256",
                  "name": "value",
                  "type": "uint256"
                },
                {
                  "internalType": "uint256",
                  "name": "decimals",
                  "type": "uint256"
                },
                {
                  "internalType": "uint256",
                  "name": "currency",
                  "type": "uint256"
                }
              ],
              "internalType": "struct JBTokenAmount",
              "name": "amount",
              "type": "tuple"
            },
            {
              "components": [
                {
                  "internalType": "address",
                  "name": "token",
                  "type": "address"
                },
                {
                  "internalType": "uint256",
                  "name": "value",
                  "type": "uint256"
                },
                {
                  "internalType": "uint256",
                  "name": "decimals",
                  "type": "uint256"
                },
                {
                  "internalType": "uint256",
                  "name": "currency",
                  "type": "uint256"
                }
              ],
              "internalType": "struct JBTokenAmount",
              "name": "forwardedAmount",
              "type": "tuple"
            },
            {
              "internalType": "uint256",
              "name": "projectTokenCount",
              "type": "uint256"
            },
            {
              "internalType": "address",
              "name": "beneficiary",
              "type": "address"
            },
            {
              "internalType": "bool",
              "name": "preferClaimedTokens",
              "type": "bool"
            },
            {
              "internalType": "string",
              "name": "memo",
              "type": "string"
            },
            {
              "internalType": "bytes",
              "name": "metadata",
              "type": "bytes"
            }
          ],
          "internalType": "struct JBDidPayData",
          "name": "_data",
          "type": "tuple"
        }
      ],
      "name": "didPay",
      "outputs": [],
      "stateMutability": "payable",
      "type": "function"
    },
    {
      "inputs": [],
      "name": "directory",
      "outputs": [
        {
          "internalType": "contract IJBDirectory",
          "name": "",
          "type": "address"
        }
      ],
      "stateMutability": "view",
      "type": "function"
    },
    {
      "inputs": [
        {
          "internalType": "uint256",
          "name": "_projectId",
          "type": "uint256"
        },
        {
          "internalType": "contract IJBDirectory",
          "name": "_directory",
          "type": "address"
        },
        {
          "internalType": "contract IUniswapV3Pool",
          "name": "_pool",
          "type": "address"
        },
        {
          "internalType": "uint256",
          "name": "_percentSwap",
          "type": "uint256"
        }
      ],
      "name": "initialize",
      "outputs": [],
      "stateMutability": "nonpayable",
      "type": "function"
    },
    {
      "inputs": [
        {
          "components": [
            {
              "internalType": "contract IJBPaymentTerminal",
              "name": "terminal",
              "type": "address"
            },
            {
              "internalType": "address",
              "name": "payer",
              "type": "address"
            },
            {
              "components": [
                {
                  "internalType": "address",
                  "name": "token",
                  "type": "address"
                },
                {
                  "internalType": "uint256",
                  "name": "value",
                  "type": "uint256"
                },
                {
                  "internalType": "uint256",
                  "name": "decimals",
                  "type": "uint256"
                },
                {
                  "internalType": "uint256",
                  "name": "currency",
                  "type": "uint256"
                }
              ],
              "internalType": "struct JBTokenAmount",
              "name": "amount",
              "type": "tuple"
            },
            {
              "internalType": "uint256",
              "name": "projectId",
              "type": "uint256"
            },
            {
              "internalType": "uint256",
              "name": "currentFundingCycleConfiguration",
              "type": "uint256"
            },
            {
              "internalType": "address",
              "name": "beneficiary",
              "type": "address"
            },
            {
              "internalType": "uint256",
              "name": "weight",
              "type": "uint256"
            },
            {
              "internalType": "uint256",
              "name": "reservedRate",
              "type": "uint256"
            },
            {
              "internalType": "string",
              "name": "memo",
              "type": "string"
            },
            {
              "internalType": "bytes",
              "name": "metadata",
              "type": "bytes"
            }
          ],
          "internalType": "struct JBPayParamsData",
          "name": "_data",
          "type": "tuple"
        }
      ],
      "name": "payParams",
      "outputs": [
        {
          "internalType": "uint256",
          "name": "weight",
          "type": "uint256"
        },
        {
          "internalType": "string",
          "name": "memo",
          "type": "string"
        },
        {
          "components": [
            {
              "internalType": "contract IJBPayDelegate",
              "name": "delegate",
              "type": "address"
            },
            {
              "internalType": "uint256",
              "name": "amount",
              "type": "uint256"
            }
          ],
          "internalType": "struct JBPayDelegateAllocation[]",
          "name": "delegateAllocations",
          "type": "tuple[]"
        }
      ],
      "stateMutability": "view",
      "type": "function"
    },
    {
      "inputs": [],
      "name": "percentSwap",
      "outputs": [
        {
          "internalType": "uint256",
          "name": "",
          "type": "uint256"
        }
      ],
      "stateMutability": "view",
      "type": "function"
    },
    {
      "inputs": [],
      "name": "pool",
      "outputs": [
        {
          "internalType": "contract IUniswapV3Pool",
          "name": "",
          "type": "address"
        }
      ],
      "stateMutability": "view",
      "type": "function"
    },
    {
      "inputs": [],
      "name": "projectId",
      "outputs": [
        {
          "internalType": "uint256",
          "name": "",
          "type": "uint256"
        }
      ],
      "stateMutability": "view",
      "type": "function"
    },
    {
      "inputs": [
        {
          "components": [
            {
              "internalType": "contract IJBPaymentTerminal",
              "name": "terminal",
              "type": "address"
            },
            {
              "internalType": "address",
              "name": "holder",
              "type": "address"
            },
            {
              "internalType": "uint256",
              "name": "projectId",
              "type": "uint256"
            },
            {
              "internalType": "uint256",
              "name": "currentFundingCycleConfiguration",
              "type": "uint256"
            },
            {
              "internalType": "uint256",
              "name": "tokenCount",
              "type": "uint256"
            },
            {
              "internalType": "uint256",
              "name": "totalSupply",
              "type": "uint256"
            },
            {
              "internalType": "uint256",
              "name": "overflow",
              "type": "uint256"
            },
            {
              "components": [
                {
                  "internalType": "address",
                  "name": "token",
                  "type": "address"
                },
                {
                  "internalType": "uint256",
                  "name": "value",
                  "type": "uint256"
                },
                {
                  "internalType": "uint256",
                  "name": "decimals",
                  "type": "uint256"
                },
                {
                  "internalType": "uint256",
                  "name": "currency",
                  "type": "uint256"
                }
              ],
              "internalType": "struct JBTokenAmount",
              "name": "reclaimAmount",
              "type": "tuple"
            },
            {
              "internalType": "bool",
              "name": "useTotalOverflow",
              "type": "bool"
            },
            {
              "internalType": "uint256",
              "name": "redemptionRate",
              "type": "uint256"
            },
            {
              "internalType": "string",
              "name": "memo",
              "type": "string"
            },
            {
              "internalType": "bytes",
              "name": "metadata",
              "type": "bytes"
            }
          ],
          "internalType": "struct JBRedeemParamsData",
          "name": "_data",
          "type": "tuple"
        }
      ],
      "name": "redeemParams",
      "outputs": [
        {
          "internalType": "uint256",
          "name": "reclaimAmount",
          "type": "uint256"
        },
        {
          "internalType": "string",
          "name": "memo",
          "type": "string"
        },
        {
          "components": [
            {
              "internalType": "contract IJBRedemptionDelegate",
              "name": "delegate",
              "type": "address"
            },
            {
              "internalType": "uint256",
              "name": "amount",
              "type": "uint256"
            }
          ],
          "internalType": "struct JBRedemptionDelegateAllocation[]",
          "name": "delegateAllocations",
          "type": "tuple[]"
        }
      ],
      "stateMutability": "view",
      "type": "function"
    },
    {
      "inputs": [
        {
          "internalType": "bytes4",
          "name": "_interfaceId",
          "type": "bytes4"
        }
      ],
      "name": "supportsInterface",
      "outputs": [
        {
          "internalType": "bool",
          "name": "",
          "type": "bool"
        }
      ],
      "stateMutability": "view",
      "type": "function"
    },
    {
      "inputs": [
        {
          "internalType": "int256",
          "name": "amount0Delta",
          "type": "int256"
        },
        {
          "internalType": "int256",
          "name": "amount1Delta",
          "type": "int256"
        },
        {
          "internalType": "bytes",
          "name": "data",
          "type": "bytes"
        }
      ],
      "name": "uniswapV3SwapCallback",
      "outputs": [],
      "stateMutability": "nonpayable",
      "type": "function"
    },
    {
      "inputs": [],
      "name": "weth",
      "outputs": [
        {
          "internalType": "contract IWETH9",
          "name": "",
          "type": "address"
        }
      ],
      "stateMutability": "view",
      "type": "function"
    }
  ],
  "bytecode": {
    "object": "0x60a060405234801561001057600080fd5b50604051610e8b380380610e8b83398101604081905261002f91610040565b6001600160a01b0316608052610070565b60006020828403121561005257600080fd5b81516001600160a01b038116811461006957600080fd5b9392505050565b608051610deb6100a060003960008181610167015281816107560152818161087001526109080152610deb6000f3fe6080604052600436106100a75760003560e01c8063c41c2f2411610064578063c41c2f24146101be578063cc229b8f146101de578063d46cf171146101f4578063da9ee8b714610214578063e37259e914610229578063fa461e331461024957600080fd5b806301ffc9a7146100ac57806316f0115b146100e15780632f1979d2146101195780633fafa1271461013f5780633fc8cef314610155578063a51cfd1814610189575b600080fd5b3480156100b857600080fd5b506100cc6100c7366004610a14565b610269565b60405190151581526020015b60405180910390f35b3480156100ed57600080fd5b50600254610101906001600160a01b031681565b6040516001600160a01b0390911681526020016100d8565b34801561012557600080fd5b50610131633b9aca0081565b6040519081526020016100d8565b34801561014b57600080fd5b5061013160005481565b34801561016157600080fd5b506101017f000000000000000000000000000000000000000000000000000000000000000081565b34801561019557600080fd5b506101af6101a4366004610a3e565b506000906060908190565b6040516100d893929190610ac0565b3480156101ca57600080fd5b50600154610101906001600160a01b031681565b3480156101ea57600080fd5b5061013160035481565b34801561020057600080fd5b506101af61020f366004610b32565b6102a0565b610227610222366004610b6e565b610399565b005b34801561023557600080fd5b50610227610244366004610bc2565b610747565b34801561025557600080fd5b50610227610264366004610c0a565b61083e565b60006001600160e01b031982166371700c6960e01b148061029a57506001600160e01b0319821663da9ee8b760e01b145b92915050565b6101208101356060806102b7610160850185610c8a565b8080601f016020809104026020016040519081016040528093929190818152602001838380828437600092019190915250929450600192506102f7915050565b60405190808252806020026020018201604052801561033c57816020015b60408051808201909152600080825260208201528152602001906001900390816103155790505b5090506040518060400160405280306001600160a01b031681526020016103718660400160200135600354633b9aca0061093d565b8152508160008151811061038757610387610cd8565b60200260200101819052509193909250565b600154600054604051636e49181f60e01b815260048101919091523360248201526001600160a01b0390911690636e49181f90604401602060405180830381865afa1580156103ec573d6000803e3d6000fd5b505050506040513d601f19601f820116820180604052508101906104109190610cee565b15806104225750600054816020013514155b15610440576040516331c57b1b60e21b815260040160405180910390fd5b600254610100820135906001600160a01b031663128acb083060018461046b6401000276a383610d10565b60405160e086901b6001600160e01b03191681526001600160a01b03948516600482015292151560248401526044830191909152909116606482015260a06084820152600060a482015260c40160408051808303816000875af11580156104d6573d6000803e3d6000fd5b505050506040513d601f19601f820116820180604052508101906104fa9190610d45565b5050600154604080516322de550f60e21b815290516000926001600160a01b031691638b79543c9160048083019260209291908290030181865afa158015610546573d6000803e3d6000fd5b505050506040513d601f19601f8201168201806040525081019061056a9190610d69565b90506000816001600160a01b0316636352211e6000546040518263ffffffff1660e01b815260040161059e91815260200190565b602060405180830381865afa1580156105bb573d6000803e3d6000fd5b505050506040513d601f19601f820116820180604052508101906105df9190610d69565b90506000600260009054906101000a90046001600160a01b03166001600160a01b031663d21220a76040518163ffffffff1660e01b8152600401602060405180830381865afa158015610636573d6000803e3d6000fd5b505050506040513d601f19601f8201168201806040525081019061065a9190610d69565b6040516370a0823160e01b81523060048201529091506001600160a01b0382169063a9059cbb90849083906370a0823190602401602060405180830381865afa1580156106ab573d6000803e3d6000fd5b505050506040513d601f19601f820116820180604052508101906106cf9190610d86565b6040516001600160e01b031960e085901b1681526001600160a01b03909216600483015260248201526044015b6020604051808303816000875af115801561071b573d6000803e3d6000fd5b505050506040513d601f19601f8201168201806040525081019061073f9190610cee565b505050505050565b6000541561075457600080fd5b7f00000000000000000000000000000000000000000000000000000000000000006001600160a01b0316826001600160a01b0316630dfe16816040518163ffffffff1660e01b8152600401602060405180830381865afa1580156107bc573d6000803e3d6000fd5b505050506040513d601f19601f820116820180604052508101906107e09190610d69565b6001600160a01b0316146108075760405163015216d560e21b815260040160405180910390fd5b600093909355600180546001600160a01b039384166001600160a01b03199182161790915560028054929093169116179055600355565b6002546001600160a01b031633146108695760405163075fd2b160e01b815260040160405180910390fd5b60008490507f00000000000000000000000000000000000000000000000000000000000000006001600160a01b031663d0e30db0826040518263ffffffff1660e01b81526004016000604051808303818588803b1580156108c957600080fd5b505af11580156108dd573d6000803e3d6000fd5b505060025460405163a9059cbb60e01b81526001600160a01b039182166004820152602481018690527f0000000000000000000000000000000000000000000000000000000000000000909116935063a9059cbb925060440190506106fc565b60008080600019858709858702925082811083820303915050806000036109775783828161096d5761096d610d9f565b0492505050610a0d565b8381106109a557604051631dcf306360e21b8152600481018290526024810185905260440160405180910390fd5b600084868809851960019081018716968790049682860381900495909211909303600082900391909104909201919091029190911760038402600290811880860282030280860282030280860282030280860282030280860282030280860290910302029150505b9392505050565b600060208284031215610a2657600080fd5b81356001600160e01b031981168114610a0d57600080fd5b600060208284031215610a5057600080fd5b813567ffffffffffffffff811115610a6757600080fd5b82016101e08185031215610a0d57600080fd5b6000815180845260005b81811015610aa057602081850181015186830182015201610a84565b506000602082860101526020601f19601f83011685010191505092915050565b83815260006020606081840152610ada6060840186610a7a565b83810360408581019190915285518083528387019284019060005b81811015610b2357845180516001600160a01b03168452860151868401529385019391830191600101610af5565b50909998505050505050505050565b600060208284031215610b4457600080fd5b813567ffffffffffffffff811115610b5b57600080fd5b82016101a08185031215610a0d57600080fd5b600060208284031215610b8057600080fd5b813567ffffffffffffffff811115610b9757600080fd5b82016102008185031215610a0d57600080fd5b6001600160a01b0381168114610bbf57600080fd5b50565b60008060008060808587031215610bd857600080fd5b843593506020850135610bea81610baa565b92506040850135610bfa81610baa565b9396929550929360600135925050565b60008060008060608587031215610c2057600080fd5b8435935060208501359250604085013567ffffffffffffffff80821115610c4657600080fd5b818701915087601f830112610c5a57600080fd5b813581811115610c6957600080fd5b886020828501011115610c7b57600080fd5b95989497505060200194505050565b6000808335601e19843603018112610ca157600080fd5b83018035915067ffffffffffffffff821115610cbc57600080fd5b602001915036819003821315610cd157600080fd5b9250929050565b634e487b7160e01b600052603260045260246000fd5b600060208284031215610d0057600080fd5b81518015158114610a0d57600080fd5b6001600160a01b03818116838216019080821115610d3e57634e487b7160e01b600052601160045260246000fd5b5092915050565b60008060408385031215610d5857600080fd5b505080516020909101519092909150565b600060208284031215610d7b57600080fd5b8151610a0d81610baa565b600060208284031215610d9857600080fd5b5051919050565b634e487b7160e01b600052601260045260246000fdfea26469706673582212209418637e152bab400c6b0d7dc88d21a7d5b53a913f306dac6f7da39e468900d464736f6c63430008140033",
    "linkReferences": {}
  },
  "methodIdentifiers": {
    "MAX_PERCENT_SWAP()": "2f1979d2",
    "didPay((address,uint256,uint256,(address,uint256,uint256,uint256),(address,uint256,uint256,uint256),uint256,address,bool,string,bytes))": "da9ee8b7",
    "directory()": "c41c2f24",
    "initialize(uint256,address,address,uint256)": "e37259e9",
    "payParams((address,address,(address,uint256,uint256,uint256),uint256,uint256,address,uint256,uint256,string,bytes))": "d46cf171",
    "percentSwap()": "cc229b8f",
    "pool()": "16f0115b",
    "projectId()": "3fafa127",
    "redeemParams((address,address,uint256,uint256,uint256,uint256,uint256,(address,uint256,uint256,uint256),bool,uint256,string,bytes))": "a51cfd18",
    "supportsInterface(bytes4)": "01ffc9a7",
    "uniswapV3SwapCallback(int256,int256,bytes)": "fa461e33",
    "weth()": "3fc8cef3"
  },
  "id": 63
}